{
  "_format": "hh-sol-artifact-1",
  "contractName": "Raffler",
  "sourceName": "contracts/Raffler.sol",
  "abi": [
    {
      "inputs": [
        {
          "internalType": "address",
          "name": "_rafflable",
          "type": "address"
        },
        {
          "internalType": "address",
          "name": "token",
          "type": "address"
        },
        {
          "internalType": "uint256",
          "name": "prize",
          "type": "uint256"
        }
      ],
      "stateMutability": "nonpayable",
      "type": "constructor"
    },
    {
      "anonymous": false,
      "inputs": [
        {
          "indexed": true,
          "internalType": "address",
          "name": "previousOwner",
          "type": "address"
        },
        {
          "indexed": true,
          "internalType": "address",
          "name": "newOwner",
          "type": "address"
        }
      ],
      "name": "OwnershipTransferred",
      "type": "event"
    },
    {
      "anonymous": false,
      "inputs": [
        {
          "indexed": false,
          "internalType": "address",
          "name": "winner",
          "type": "address"
        },
        {
          "indexed": false,
          "internalType": "address",
          "name": "token",
          "type": "address"
        },
        {
          "indexed": false,
          "internalType": "uint256",
          "name": "amount",
          "type": "uint256"
        }
      ],
      "name": "PrizeTransfer",
      "type": "event"
    },
    {
      "anonymous": false,
      "inputs": [
        {
          "indexed": false,
          "internalType": "uint256",
          "name": "tokenId",
          "type": "uint256"
        },
        {
          "indexed": false,
          "internalType": "address",
          "name": "token",
          "type": "address"
        },
        {
          "indexed": false,
          "internalType": "uint256",
          "name": "amount",
          "type": "uint256"
        }
      ],
      "name": "PrizeWon",
      "type": "event"
    },
    {
      "anonymous": false,
      "inputs": [
        {
          "indexed": false,
          "internalType": "uint256",
          "name": "tokenId",
          "type": "uint256"
        },
        {
          "indexed": false,
          "internalType": "uint256",
          "name": "ticketId",
          "type": "uint256"
        }
      ],
      "name": "TicketAdded",
      "type": "event"
    },
    {
      "anonymous": false,
      "inputs": [
        {
          "indexed": false,
          "internalType": "address",
          "name": "token",
          "type": "address"
        },
        {
          "indexed": false,
          "internalType": "uint256",
          "name": "prize",
          "type": "uint256"
        }
      ],
      "name": "TokenPrize",
      "type": "event"
    },
    {
      "inputs": [
        {
          "internalType": "uint256",
          "name": "tokenId",
          "type": "uint256"
        },
        {
          "internalType": "uint256",
          "name": "ticketId",
          "type": "uint256"
        }
      ],
      "name": "add",
      "outputs": [
        {
          "internalType": "bool",
          "name": "",
          "type": "bool"
        }
      ],
      "stateMutability": "nonpayable",
      "type": "function"
    },
    {
      "inputs": [
        {
          "internalType": "address",
          "name": "token",
          "type": "address"
        },
        {
          "internalType": "uint256",
          "name": "prize",
          "type": "uint256"
        }
      ],
      "name": "addTokenPrize",
      "outputs": [],
      "stateMutability": "nonpayable",
      "type": "function"
    },
    {
      "inputs": [],
      "name": "claimable",
      "outputs": [
        {
          "internalType": "uint256[]",
          "name": "",
          "type": "uint256[]"
        }
      ],
      "stateMutability": "view",
      "type": "function"
    },
    {
      "inputs": [],
      "name": "counter",
      "outputs": [
        {
          "internalType": "uint256",
          "name": "",
          "type": "uint256"
        }
      ],
      "stateMutability": "view",
      "type": "function"
    },
    {
      "inputs": [
        {
          "internalType": "bytes32",
          "name": "seed",
          "type": "bytes32"
        }
      ],
      "name": "draw",
      "outputs": [
        {
          "internalType": "bool",
          "name": "",
          "type": "bool"
        }
      ],
      "stateMutability": "nonpayable",
      "type": "function"
    },
    {
      "inputs": [],
      "name": "hat",
      "outputs": [
        {
          "internalType": "uint256[]",
          "name": "",
          "type": "uint256[]"
        }
      ],
      "stateMutability": "view",
      "type": "function"
    },
    {
      "inputs": [
        {
          "internalType": "uint256",
          "name": "index",
          "type": "uint256"
        }
      ],
      "name": "hatOf",
      "outputs": [
        {
          "internalType": "uint256[]",
          "name": "",
          "type": "uint256[]"
        }
      ],
      "stateMutability": "view",
      "type": "function"
    },
    {
      "inputs": [],
      "name": "owner",
      "outputs": [
        {
          "internalType": "address",
          "name": "",
          "type": "address"
        }
      ],
      "stateMutability": "view",
      "type": "function"
    },
    {
      "inputs": [
        {
          "internalType": "address",
          "name": "token",
          "type": "address"
        }
      ],
      "name": "prizeOf",
      "outputs": [
        {
          "internalType": "uint256",
          "name": "",
          "type": "uint256"
        }
      ],
      "stateMutability": "view",
      "type": "function"
    },
    {
      "inputs": [],
      "name": "rafflable",
      "outputs": [
        {
          "internalType": "contract IERC721",
          "name": "",
          "type": "address"
        }
      ],
      "stateMutability": "view",
      "type": "function"
    },
    {
      "inputs": [
        {
          "internalType": "address",
          "name": "",
          "type": "address"
        }
      ],
      "name": "rafflePrize",
      "outputs": [
        {
          "internalType": "uint256",
          "name": "",
          "type": "uint256"
        }
      ],
      "stateMutability": "view",
      "type": "function"
    },
    {
      "inputs": [],
      "name": "renounceOwnership",
      "outputs": [],
      "stateMutability": "nonpayable",
      "type": "function"
    },
    {
      "inputs": [
        {
          "internalType": "bytes4",
          "name": "interfaceId",
          "type": "bytes4"
        }
      ],
      "name": "supportsInterface",
      "outputs": [
        {
          "internalType": "bool",
          "name": "",
          "type": "bool"
        }
      ],
      "stateMutability": "view",
      "type": "function"
    },
    {
      "inputs": [],
      "name": "tokens",
      "outputs": [
        {
          "internalType": "address[]",
          "name": "",
          "type": "address[]"
        }
      ],
      "stateMutability": "view",
      "type": "function"
    },
    {
      "inputs": [
        {
          "internalType": "address",
          "name": "",
          "type": "address"
        }
      ],
      "name": "totalWithdrawableBalance",
      "outputs": [
        {
          "internalType": "uint256",
          "name": "",
          "type": "uint256"
        }
      ],
      "stateMutability": "view",
      "type": "function"
    },
    {
      "inputs": [
        {
          "internalType": "address",
          "name": "newOwner",
          "type": "address"
        }
      ],
      "name": "transferOwnership",
      "outputs": [],
      "stateMutability": "nonpayable",
      "type": "function"
    },
    {
      "inputs": [],
      "name": "winners",
      "outputs": [
        {
          "internalType": "uint256[]",
          "name": "",
          "type": "uint256[]"
        }
      ],
      "stateMutability": "view",
      "type": "function"
    },
    {
      "inputs": [
        {
          "internalType": "uint256",
          "name": "tokenId",
          "type": "uint256"
        }
      ],
      "name": "withdraw",
      "outputs": [],
      "stateMutability": "nonpayable",
      "type": "function"
    },
    {
      "inputs": [
        {
          "internalType": "uint256",
          "name": "",
          "type": "uint256"
        },
        {
          "internalType": "address",
          "name": "",
          "type": "address"
        }
      ],
      "name": "withdrawableBalance",
      "outputs": [
        {
          "internalType": "uint256",
          "name": "",
          "type": "uint256"
        }
      ],
      "stateMutability": "view",
      "type": "function"
    }
  ],
  "bytecode": "0x60a06040523480156200001157600080fd5b5060405162002fb038038062002fb083398181016040528101906200003791906200046c565b620000576200004b620000ea60201b60201c565b620000f260201b60201c565b8273ffffffffffffffffffffffffffffffffffffffff1660808173ffffffffffffffffffffffffffffffffffffffff1660601b81525050620000bf7f85d15e5d00000000000000000000000000000000000000000000000000000000620001b860201b60201c565b620000d182826200029060201b60201c565b620000e16200032f60201b60201c565b50505062000670565b600033905090565b6000600160009054906101000a900473ffffffffffffffffffffffffffffffffffffffff16905081600160006101000a81548173ffffffffffffffffffffffffffffffffffffffff021916908373ffffffffffffffffffffffffffffffffffffffff1602179055508173ffffffffffffffffffffffffffffffffffffffff168173ffffffffffffffffffffffffffffffffffffffff167f8be0079c531659141344cd1fd0a4f28419497f9722a3daafe3b4186f6b6457e060405160405180910390a35050565b63ffffffff60e01b817bffffffffffffffffffffffffffffffffffffffffffffffffffffffff1916141562000224576040517f08c379a00000000000000000000000000000000000000000000000000000000081526004016200021b9062000538565b60405180910390fd5b6001600080837bffffffffffffffffffffffffffffffffffffffffffffffffffffffff19167bffffffffffffffffffffffffffffffffffffffffffffffffffffffff1916815260200190815260200160002060006101000a81548160ff02191690831515021790555050565b620002ab8260026200036960201b620015731790919060201c565b5080600860008473ffffffffffffffffffffffffffffffffffffffff1673ffffffffffffffffffffffffffffffffffffffff168152602001908152602001600020819055507f9ecf847944cbf529e9369a6dd406da52e7bc4c37c3de326072fcc840dbd0213a8282604051620003239291906200050b565b60405180910390a15050565b60046001816001815401808255809150500390600052602060002090505060016004805490506200036191906200056b565b600581905550565b600062000399836000018373ffffffffffffffffffffffffffffffffffffffff1660001b620003a160201b60201c565b905092915050565b6000620003b583836200041b60201b60201c565b6200041057826000018290806001815401808255809150506001900390600052602060002001600090919091909150558260000180549050836001016000848152602001908152602001600020819055506001905062000415565b600090505b92915050565b600080836001016000848152602001908152602001600020541415905092915050565b6000815190506200044f816200063c565b92915050565b600081519050620004668162000656565b92915050565b6000806000606084860312156200048257600080fd5b600062000492868287016200043e565b9350506020620004a5868287016200043e565b9250506040620004b88682870162000455565b9150509250925092565b620004cd81620005a6565b82525050565b6000620004e2601c836200055a565b9150620004ef8262000613565b602082019050919050565b6200050581620005da565b82525050565b6000604082019050620005226000830185620004c2565b620005316020830184620004fa565b9392505050565b600060208201905081810360008301526200055381620004d3565b9050919050565b600082825260208201905092915050565b60006200057882620005da565b91506200058583620005da565b9250828210156200059b576200059a620005e4565b5b828203905092915050565b6000620005b382620005ba565b9050919050565b600073ffffffffffffffffffffffffffffffffffffffff82169050919050565b6000819050919050565b7f4e487b7100000000000000000000000000000000000000000000000000000000600052601160045260246000fd5b7f4552433136353a20696e76616c696420696e7465726661636520696400000000600082015250565b6200064781620005a6565b81146200065357600080fd5b50565b6200066181620005da565b81146200066d57600080fd5b50565b60805160601c61290c620006a46000396000818161040301528181610a1101528181610fcf0152611447015261290c6000f3fe608060405234801561001057600080fd5b50600436106101215760003560e01c80637578974d116100ad578063a487bcd811610071578063a487bcd814610342578063af38d75714610360578063f10eb67a1461037e578063f2fde38b1461039c578063fe95a5ce146103b857610121565b80637578974d1461028a578063771602f7146102ba5780638da5cb5b146102ea57806390542801146103085780639d63848a1461032457610121565b80635dee0b74116100f45780635dee0b74146101d25780635f0d34481461020257806361bc221a14610232578063629374ab14610250578063715018a61461028057610121565b806301ffc9a71461012657806304eb650e146101565780632e1a7d4d14610186578063584cc547146101a2575b600080fd5b610140600480360381019061013b9190611d9e565b6103d6565b60405161014d91906121f4565b60405180910390f35b610170600480360381019061016b9190611cbe565b6103e8565b60405161017d919061236a565b60405180910390f35b6101a0600480360381019061019b9190611dc7565b610400565b005b6101bc60048036038101906101b79190611e19565b6107db565b6040516101c9919061236a565b60405180910390f35b6101ec60048036038101906101e79190611dc7565b610800565b6040516101f991906121d2565b60405180910390f35b61021c60048036038101906102179190611cbe565b6108a9565b604051610229919061236a565b60405180910390f35b61023a610a00565b604051610247919061236a565b60405180910390f35b61026a60048036038101906102659190611d75565b610a0d565b60405161027791906121f4565b60405180910390f35b610288610f2b565b005b6102a4600480360381019061029f9190611cbe565b610fb3565b6040516102b1919061236a565b60405180910390f35b6102d460048036038101906102cf9190611e55565b610fcb565b6040516102e191906121f4565b60405180910390f35b6102f2611131565b6040516102ff9190612135565b60405180910390f35b610322600480360381019061031d9190611d10565b61115b565b005b61032c6112d5565b60405161033991906121b0565b60405180910390f35b61034a6112e6565b60405161035791906121d2565b60405180910390f35b610368611434565b60405161037591906121d2565b60405180910390f35b610386611445565b604051610393919061220f565b60405180910390f35b6103b660048036038101906103b19190611cbe565b611469565b005b6103c0611561565b6040516103cd91906121d2565b60405180910390f35b60006103e1826115a3565b9050919050565b60086020528060005260406000206000915090505481565b807f000000000000000000000000000000000000000000000000000000000000000073ffffffffffffffffffffffffffffffffffffffff16636352211e826040518263ffffffff1660e01b815260040161045a919061236a565b60206040518083038186803b15801561047257600080fd5b505afa158015610486573d6000803e3d6000fd5b505050506040513d601f19601f820116820180604052508101906104aa9190611ce7565b73ffffffffffffffffffffffffffffffffffffffff163373ffffffffffffffffffffffffffffffffffffffff1614610517576040517f08c379a000000000000000000000000000000000000000000000000000000000815260040161050e9061230a565b60405180910390fd5b61052b81600661161a90919063ffffffff16565b61056a576040517f08c379a00000000000000000000000000000000000000000000000000000000081526004016105619061224a565b60405180910390fd5b60005b6105776002611634565b8160ff1610156107c157600061059a8260ff16600261164990919063ffffffff16565b90506000600a600086815260200190815260200160002060008373ffffffffffffffffffffffffffffffffffffffff1673ffffffffffffffffffffffffffffffffffffffff16815260200190815260200160002054905060008111156107ac578173ffffffffffffffffffffffffffffffffffffffff1663a9059cbb33836040518363ffffffff1660e01b8152600401610635929190612187565b602060405180830381600087803b15801561064f57600080fd5b505af1158015610663573d6000803e3d6000fd5b505050506040513d601f19601f820116820180604052508101906106879190611d4c565b6106c6576040517f08c379a00000000000000000000000000000000000000000000000000000000081526004016106bd9061228a565b60405180910390fd5b600a600086815260200190815260200160002060008373ffffffffffffffffffffffffffffffffffffffff1673ffffffffffffffffffffffffffffffffffffffff1681526020019081526020016000206000905580600960008473ffffffffffffffffffffffffffffffffffffffff1673ffffffffffffffffffffffffffffffffffffffff168152602001908152602001600020600082825461076991906124be565b925050819055507f700a9113c5657f2572142e1a393bbf22583380532704785c39b48ae38e4bd9003383836040516107a393929190612150565b60405180910390a15b505080806107b9906125ea565b91505061056d565b506107d682600661166390919063ffffffff16565b505050565b600a602052816000526040600020602052806000526040600020600091509150505481565b60606004805490508210610849576040517f08c379a00000000000000000000000000000000000000000000000000000000081526004016108409061234a565b60405180910390fd5b600060048381548110610885577f4e487b7100000000000000000000000000000000000000000000000000000000600052603260045260246000fd5b906000526020600020906005020190506108a18160000161167d565b915050919050565b6000808273ffffffffffffffffffffffffffffffffffffffff166370a08231306040518263ffffffff1660e01b81526004016108e59190612135565b60206040518083038186803b1580156108fd57600080fd5b505afa158015610911573d6000803e3d6000fd5b505050506040513d601f19601f820116820180604052508101906109359190611df0565b9050600960008473ffffffffffffffffffffffffffffffffffffffff1673ffffffffffffffffffffffffffffffffffffffff168152602001908152602001600020548110156109ad577f4e487b7100000000000000000000000000000000000000000000000000000000600052600160045260246000fd5b600960008473ffffffffffffffffffffffffffffffffffffffff1673ffffffffffffffffffffffffffffffffffffffff16815260200190815260200160002054816109f891906124be565b915050919050565b6000600480549050905090565b60007f000000000000000000000000000000000000000000000000000000000000000073ffffffffffffffffffffffffffffffffffffffff163373ffffffffffffffffffffffffffffffffffffffff1614610a9d576040517f08c379a0000000000000000000000000000000000000000000000000000000008152600401610a94906122ca565b60405180910390fd5b610aa5611c08565b600080600090505b610ab76002611634565b8160ff161015610c1b576000610ada8260ff16600261164990919063ffffffff16565b90506000610ae7826108a9565b9050600860008373ffffffffffffffffffffffffffffffffffffffff1673ffffffffffffffffffffffffffffffffffffffff168152602001908152602001600020548110610bbf5760019350600860008373ffffffffffffffffffffffffffffffffffffffff1673ffffffffffffffffffffffffffffffffffffffff16815260200190815260200160002054858460ff16600a8110610baf577f4e487b7100000000000000000000000000000000000000000000000000000000600052603260045260246000fd5b6020020181815250505050610c08565b80858460ff16600a8110610bfc577f4e487b7100000000000000000000000000000000000000000000000000000000600052603260045260246000fd5b60200201818152505050505b8080610c13906125ea565b915050610aad565b508015610f21576000600460055481548110610c60577f4e487b7100000000000000000000000000000000000000000000000000000000600052603260045260246000fd5b906000526020600020906005020190506000610c7e8260000161169e565b8660001c610c8c9190612614565b9050610ca481836000016116b390919063ffffffff16565b826004018190555060005b610cb96002611634565b8160ff161015610efc576000858260ff16600a8110610d01577f4e487b7100000000000000000000000000000000000000000000000000000000600052603260045260246000fd5b60200201511115610ee9576000610d258260ff16600261164990919063ffffffff16565b9050858260ff16600a8110610d63577f4e487b7100000000000000000000000000000000000000000000000000000000600052603260045260246000fd5b6020020151600960008373ffffffffffffffffffffffffffffffffffffffff1673ffffffffffffffffffffffffffffffffffffffff1681526020019081526020016000206000828254610db69190612468565b92505081905550858260ff16600a8110610df9577f4e487b7100000000000000000000000000000000000000000000000000000000600052603260045260246000fd5b6020020151600a60008660040154815260200190815260200160002060008373ffffffffffffffffffffffffffffffffffffffff1673ffffffffffffffffffffffffffffffffffffffff1681526020019081526020016000206000828254610e619190612468565b925050819055507fb3c0323a3b9df1b8e6fac076cb538d20464354ed830d34e20d29ff82381cc415846004015482888560ff16600a8110610ecb577f4e487b7100000000000000000000000000000000000000000000000000000000600052603260045260246000fd5b6020020151604051610edf93929190612385565b60405180910390a1505b8080610ef4906125ea565b915050610caf565b50610f15826004015460066116cd90919063ffffffff16565b50610f1e6116e7565b50505b8092505050919050565b610f3361171f565b73ffffffffffffffffffffffffffffffffffffffff16610f51611131565b73ffffffffffffffffffffffffffffffffffffffff1614610fa7576040517f08c379a0000000000000000000000000000000000000000000000000000000008152600401610f9e906122ea565b60405180910390fd5b610fb16000611727565b565b60096020528060005260406000206000915090505481565b60007f000000000000000000000000000000000000000000000000000000000000000073ffffffffffffffffffffffffffffffffffffffff163373ffffffffffffffffffffffffffffffffffffffff161461105b576040517f08c379a0000000000000000000000000000000000000000000000000000000008152600401611052906122ca565b60405180910390fd5b6000600460055481548110611099577f4e487b7100000000000000000000000000000000000000000000000000000000600052603260045260246000fd5b906000526020600020906005020190506110bf84826002016116cd90919063ffffffff16565b80156110dd57506110dc83826000016116cd90919063ffffffff16565b5b15611125577f799bdfa446bc7e6936663094ee6db5db74b6fcdfc4dcf6cb7c0d56c352e9906684846040516111139291906123bc565b60405180910390a1600191505061112b565b60009150505b92915050565b6000600160009054906101000a900473ffffffffffffffffffffffffffffffffffffffff16905090565b61116361171f565b73ffffffffffffffffffffffffffffffffffffffff16611181611131565b73ffffffffffffffffffffffffffffffffffffffff16146111d7576040517f08c379a00000000000000000000000000000000000000000000000000000000081526004016111ce906122ea565b60405180910390fd5b600a60ff166111e66002611634565b10611226576040517f08c379a000000000000000000000000000000000000000000000000000000000815260040161121d906122aa565b60405180910390fd5b6112458273ffffffffffffffffffffffffffffffffffffffff166117ed565b611284576040517f08c379a000000000000000000000000000000000000000000000000000000000815260040161127b9061226a565b60405180910390fd5b600081116112c7576040517f08c379a00000000000000000000000000000000000000000000000000000000081526004016112be9061232a565b60405180910390fd5b6112d18282611810565b5050565b60606112e160026118a6565b905090565b6060600060016004805490506112fc91906124be565b67ffffffffffffffff81111561133b577f4e487b7100000000000000000000000000000000000000000000000000000000600052604160045260246000fd5b6040519080825280602002602001820160405280156113695781602001602082028036833780820191505090505b50905060005b6004805490506001826113829190612468565b101561142c57600481815481106113c2577f4e487b7100000000000000000000000000000000000000000000000000000000600052603260045260246000fd5b90600052602060002090600502016004015482828151811061140d577f4e487b7100000000000000000000000000000000000000000000000000000000600052603260045260246000fd5b6020026020010181815250508080611424906125a1565b91505061136f565b508091505090565b6060611440600661167d565b905090565b7f000000000000000000000000000000000000000000000000000000000000000081565b61147161171f565b73ffffffffffffffffffffffffffffffffffffffff1661148f611131565b73ffffffffffffffffffffffffffffffffffffffff16146114e5576040517f08c379a00000000000000000000000000000000000000000000000000000000081526004016114dc906122ea565b60405180910390fd5b600073ffffffffffffffffffffffffffffffffffffffff168173ffffffffffffffffffffffffffffffffffffffff161415611555576040517f08c379a000000000000000000000000000000000000000000000000000000000815260040161154c9061222a565b60405180910390fd5b61155e81611727565b50565b606061156e600554610800565b905090565b600061159b836000018373ffffffffffffffffffffffffffffffffffffffff1660001b6118c7565b905092915050565b60006115ae82611937565b806116135750600080837bffffffffffffffffffffffffffffffffffffffffffffffffffffffff19167bffffffffffffffffffffffffffffffffffffffffffffffffffffffff1916815260200190815260200160002060009054906101000a900460ff165b9050919050565b600061162c836000018360001b6119a1565b905092915050565b6000611642826000016119c4565b9050919050565b600061165883600001836119d5565b60001c905092915050565b6000611675836000018360001b611a26565b905092915050565b6060600061168d83600001611bac565b905060608190508092505050919050565b60006116ac826000016119c4565b9050919050565b60006116c283600001836119d5565b60001c905092915050565b60006116df836000018360001b6118c7565b905092915050565b600460018160018154018082558091505003906000526020600020905050600160048054905061171791906124be565b600581905550565b600033905090565b6000600160009054906101000a900473ffffffffffffffffffffffffffffffffffffffff16905081600160006101000a81548173ffffffffffffffffffffffffffffffffffffffff021916908373ffffffffffffffffffffffffffffffffffffffff1602179055508173ffffffffffffffffffffffffffffffffffffffff168173ffffffffffffffffffffffffffffffffffffffff167f8be0079c531659141344cd1fd0a4f28419497f9722a3daafe3b4186f6b6457e060405160405180910390a35050565b6000808273ffffffffffffffffffffffffffffffffffffffff163b119050919050565b61182482600261157390919063ffffffff16565b5080600860008473ffffffffffffffffffffffffffffffffffffffff1673ffffffffffffffffffffffffffffffffffffffff168152602001908152602001600020819055507f9ecf847944cbf529e9369a6dd406da52e7bc4c37c3de326072fcc840dbd0213a828260405161189a929190612187565b60405180910390a15050565b606060006118b683600001611bac565b905060608190508092505050919050565b60006118d383836119a1565b61192c578260000182908060018154018082558091505060019003906000526020600020016000909190919091505582600001805490508360010160008481526020019081526020016000208190555060019050611931565b600090505b92915050565b60007f01ffc9a7000000000000000000000000000000000000000000000000000000007bffffffffffffffffffffffffffffffffffffffffffffffffffffffff1916827bffffffffffffffffffffffffffffffffffffffffffffffffffffffff1916149050919050565b600080836001016000848152602001908152602001600020541415905092915050565b600081600001805490509050919050565b6000826000018281548110611a13577f4e487b7100000000000000000000000000000000000000000000000000000000600052603260045260246000fd5b9060005260206000200154905092915050565b60008083600101600084815260200190815260200160002054905060008114611ba0576000600182611a5891906124be565b9050600060018660000180549050611a7091906124be565b9050818114611b2b576000866000018281548110611ab7577f4e487b7100000000000000000000000000000000000000000000000000000000600052603260045260246000fd5b9060005260206000200154905080876000018481548110611b01577f4e487b7100000000000000000000000000000000000000000000000000000000600052603260045260246000fd5b90600052602060002001819055508387600101600083815260200190815260200160002081905550505b85600001805480611b65577f4e487b7100000000000000000000000000000000000000000000000000000000600052603160045260246000fd5b600190038181906000526020600020016000905590558560010160008681526020019081526020016000206000905560019350505050611ba6565b60009150505b92915050565b606081600001805480602002602001604051908101604052809291908181526020018280548015611bfc57602002820191906000526020600020905b815481526020019060010190808311611be8575b50505050509050919050565b604051806101400160405280600a90602082028036833780820191505090505090565b600081359050611c3a81612863565b92915050565b600081519050611c4f81612863565b92915050565b600081519050611c648161287a565b92915050565b600081359050611c7981612891565b92915050565b600081359050611c8e816128a8565b92915050565b600081359050611ca3816128bf565b92915050565b600081519050611cb8816128bf565b92915050565b600060208284031215611cd057600080fd5b6000611cde84828501611c2b565b91505092915050565b600060208284031215611cf957600080fd5b6000611d0784828501611c40565b91505092915050565b60008060408385031215611d2357600080fd5b6000611d3185828601611c2b565b9250506020611d4285828601611c94565b9150509250929050565b600060208284031215611d5e57600080fd5b6000611d6c84828501611c55565b91505092915050565b600060208284031215611d8757600080fd5b6000611d9584828501611c6a565b91505092915050565b600060208284031215611db057600080fd5b6000611dbe84828501611c7f565b91505092915050565b600060208284031215611dd957600080fd5b6000611de784828501611c94565b91505092915050565b600060208284031215611e0257600080fd5b6000611e1084828501611ca9565b91505092915050565b60008060408385031215611e2c57600080fd5b6000611e3a85828601611c94565b9250506020611e4b85828601611c2b565b9150509250929050565b60008060408385031215611e6857600080fd5b6000611e7685828601611c94565b9250506020611e8785828601611c94565b9150509250929050565b6000611e9d8383611ec1565b60208301905092915050565b6000611eb58383612117565b60208301905092915050565b611eca816124f2565b82525050565b611ed9816124f2565b82525050565b6000611eea82612405565b611ef48185612435565b9350611eff836123e5565b8060005b83811015611f30578151611f178882611e91565b9750611f228361241b565b925050600181019050611f03565b5085935050505092915050565b6000611f4882612410565b611f528185612446565b9350611f5d836123f5565b8060005b83811015611f8e578151611f758882611ea9565b9750611f8083612428565b925050600181019050611f61565b5085935050505092915050565b611fa481612504565b82525050565b611fb38161257d565b82525050565b6000611fc6602683612457565b9150611fd1826126a3565b604082019050919050565b6000611fe9601583612457565b9150611ff4826126f2565b602082019050919050565b600061200c601283612457565b91506120178261271b565b602082019050919050565b600061202f601d83612457565b915061203a82612744565b602082019050919050565b6000612052601683612457565b915061205d8261276d565b602082019050919050565b6000612075601d83612457565b915061208082612796565b602082019050919050565b6000612098602083612457565b91506120a3826127bf565b602082019050919050565b60006120bb601283612457565b91506120c6826127e8565b602082019050919050565b60006120de601f83612457565b91506120e982612811565b602082019050919050565b6000612101601283612457565b915061210c8261283a565b602082019050919050565b61212081612566565b82525050565b61212f81612566565b82525050565b600060208201905061214a6000830184611ed0565b92915050565b60006060820190506121656000830186611ed0565b6121726020830185611ed0565b61217f6040830184612126565b949350505050565b600060408201905061219c6000830185611ed0565b6121a96020830184612126565b9392505050565b600060208201905081810360008301526121ca8184611edf565b905092915050565b600060208201905081810360008301526121ec8184611f3d565b905092915050565b60006020820190506122096000830184611f9b565b92915050565b60006020820190506122246000830184611faa565b92915050565b6000602082019050818103600083015261224381611fb9565b9050919050565b6000602082019050818103600083015261226381611fdc565b9050919050565b6000602082019050818103600083015261228381611fff565b9050919050565b600060208201905081810360008301526122a381612022565b9050919050565b600060208201905081810360008301526122c381612045565b9050919050565b600060208201905081810360008301526122e381612068565b9050919050565b600060208201905081810360008301526123038161208b565b9050919050565b60006020820190508181036000830152612323816120ae565b9050919050565b60006020820190508181036000830152612343816120d1565b9050919050565b60006020820190508181036000830152612363816120f4565b9050919050565b600060208201905061237f6000830184612126565b92915050565b600060608201905061239a6000830186612126565b6123a76020830185611ed0565b6123b46040830184612126565b949350505050565b60006040820190506123d16000830185612126565b6123de6020830184612126565b9392505050565b6000819050602082019050919050565b6000819050602082019050919050565b600081519050919050565b600081519050919050565b6000602082019050919050565b6000602082019050919050565b600082825260208201905092915050565b600082825260208201905092915050565b600082825260208201905092915050565b600061247382612566565b915061247e83612566565b9250827fffffffffffffffffffffffffffffffffffffffffffffffffffffffffffffffff038211156124b3576124b2612645565b5b828201905092915050565b60006124c982612566565b91506124d483612566565b9250828210156124e7576124e6612645565b5b828203905092915050565b60006124fd82612546565b9050919050565b60008115159050919050565b6000819050919050565b60007fffffffff0000000000000000000000000000000000000000000000000000000082169050919050565b600073ffffffffffffffffffffffffffffffffffffffff82169050919050565b6000819050919050565b600060ff82169050919050565b60006125888261258f565b9050919050565b600061259a82612546565b9050919050565b60006125ac82612566565b91507fffffffffffffffffffffffffffffffffffffffffffffffffffffffffffffffff8214156125df576125de612645565b5b600182019050919050565b60006125f582612570565b915060ff82141561260957612608612645565b5b600182019050919050565b600061261f82612566565b915061262a83612566565b92508261263a57612639612674565b5b828206905092915050565b7f4e487b7100000000000000000000000000000000000000000000000000000000600052601160045260246000fd5b7f4e487b7100000000000000000000000000000000000000000000000000000000600052601260045260246000fd5b7f4f776e61626c653a206e6577206f776e657220697320746865207a65726f206160008201527f6464726573730000000000000000000000000000000000000000000000000000602082015250565b7f746f6b656e206973206e6f7420612077696e6e65720000000000000000000000600082015250565b7f6d757374206265206120636f6e74726163740000000000000000000000000000600082015250565b7f6572726f72207768696c65207472616e73666572696e67207072697a65000000600082015250565b7f6d6178696d756d20746f6b656e73207265616368656400000000000000000000600082015250565b7f6f6e6c79206120726166666c61626c6520616c6c6f7765642063616c6c000000600082015250565b7f4f776e61626c653a2063616c6c6572206973206e6f7420746865206f776e6572600082015250565b7f6e6f74206f776e6572206f6620746f6b656e0000000000000000000000000000600082015250565b7f7072697a65206d7573742062652067726561746572207468616e207a65726f00600082015250565b7f6f7574206f6620626f756e642076616c75650000000000000000000000000000600082015250565b61286c816124f2565b811461287757600080fd5b50565b61288381612504565b811461288e57600080fd5b50565b61289a81612510565b81146128a557600080fd5b50565b6128b18161251a565b81146128bc57600080fd5b50565b6128c881612566565b81146128d357600080fd5b5056fea2646970667358221220a6d86915ab1842dc57eea9e3c602400bc57eb61c92a2123b52fda745544c535064736f6c63430008020033",
  "linkReferences": {},
  "deployedLinkReferences": {}
}