{
  "_format": "hh-sol-artifact-1",
  "contractName": "Rafflable",
  "sourceName": "contracts/Rafflable.sol",
  "abi": [
    {
      "inputs": [
        {
          "internalType": "string",
          "name": "_name",
          "type": "string"
        },
        {
          "internalType": "string",
          "name": "_configUri",
          "type": "string"
        },
        {
          "internalType": "string",
          "name": "baseUri",
          "type": "string"
        },
        {
          "internalType": "string",
          "name": "secretUri",
          "type": "string"
        },
        {
          "internalType": "uint256",
          "name": "_cap",
          "type": "uint256"
        },
        {
          "internalType": "uint256",
          "name": "_timelock",
          "type": "uint256"
        },
        {
          "internalType": "address",
          "name": "_creator",
          "type": "address"
        },
        {
          "internalType": "address",
          "name": "_token",
          "type": "address"
        },
        {
          "internalType": "uint256",
          "name": "_cost",
          "type": "uint256"
        }
      ],
      "stateMutability": "nonpayable",
      "type": "constructor"
    },
    {
      "anonymous": false,
      "inputs": [
        {
          "indexed": true,
          "internalType": "address",
          "name": "owner",
          "type": "address"
        },
        {
          "indexed": true,
          "internalType": "address",
          "name": "approved",
          "type": "address"
        },
        {
          "indexed": true,
          "internalType": "uint256",
          "name": "tokenId",
          "type": "uint256"
        }
      ],
      "name": "Approval",
      "type": "event"
    },
    {
      "anonymous": false,
      "inputs": [
        {
          "indexed": true,
          "internalType": "address",
          "name": "owner",
          "type": "address"
        },
        {
          "indexed": true,
          "internalType": "address",
          "name": "operator",
          "type": "address"
        },
        {
          "indexed": false,
          "internalType": "bool",
          "name": "approved",
          "type": "bool"
        }
      ],
      "name": "ApprovalForAll",
      "type": "event"
    },
    {
      "anonymous": false,
      "inputs": [
        {
          "indexed": true,
          "internalType": "address",
          "name": "previousOwner",
          "type": "address"
        },
        {
          "indexed": true,
          "internalType": "address",
          "name": "newOwner",
          "type": "address"
        }
      ],
      "name": "OwnershipTransferred",
      "type": "event"
    },
    {
      "anonymous": false,
      "inputs": [
        {
          "indexed": false,
          "internalType": "address",
          "name": "to",
          "type": "address"
        }
      ],
      "name": "RafflerUpdate",
      "type": "event"
    },
    {
      "anonymous": false,
      "inputs": [
        {
          "indexed": true,
          "internalType": "address",
          "name": "from",
          "type": "address"
        },
        {
          "indexed": true,
          "internalType": "address",
          "name": "to",
          "type": "address"
        },
        {
          "indexed": true,
          "internalType": "uint256",
          "name": "tokenId",
          "type": "uint256"
        }
      ],
      "name": "Transfer",
      "type": "event"
    },
    {
      "inputs": [
        {
          "internalType": "address",
          "name": "to",
          "type": "address"
        },
        {
          "internalType": "uint256",
          "name": "tokenId",
          "type": "uint256"
        }
      ],
      "name": "approve",
      "outputs": [],
      "stateMutability": "nonpayable",
      "type": "function"
    },
    {
      "inputs": [
        {
          "internalType": "address",
          "name": "owner",
          "type": "address"
        }
      ],
      "name": "balanceOf",
      "outputs": [
        {
          "internalType": "uint256",
          "name": "",
          "type": "uint256"
        }
      ],
      "stateMutability": "view",
      "type": "function"
    },
    {
      "inputs": [],
      "name": "cap",
      "outputs": [
        {
          "internalType": "uint256",
          "name": "",
          "type": "uint256"
        }
      ],
      "stateMutability": "view",
      "type": "function"
    },
    {
      "inputs": [],
      "name": "configUri",
      "outputs": [
        {
          "internalType": "string",
          "name": "",
          "type": "string"
        }
      ],
      "stateMutability": "view",
      "type": "function"
    },
    {
      "inputs": [],
      "name": "cost",
      "outputs": [
        {
          "internalType": "uint256",
          "name": "",
          "type": "uint256"
        }
      ],
      "stateMutability": "view",
      "type": "function"
    },
    {
      "inputs": [],
      "name": "creator",
      "outputs": [
        {
          "internalType": "address",
          "name": "",
          "type": "address"
        }
      ],
      "stateMutability": "view",
      "type": "function"
    },
    {
      "inputs": [
        {
          "internalType": "uint256",
          "name": "tokenId",
          "type": "uint256"
        }
      ],
      "name": "getApproved",
      "outputs": [
        {
          "internalType": "address",
          "name": "",
          "type": "address"
        }
      ],
      "stateMutability": "view",
      "type": "function"
    },
    {
      "inputs": [
        {
          "internalType": "address",
          "name": "owner",
          "type": "address"
        },
        {
          "internalType": "address",
          "name": "operator",
          "type": "address"
        }
      ],
      "name": "isApprovedForAll",
      "outputs": [
        {
          "internalType": "bool",
          "name": "",
          "type": "bool"
        }
      ],
      "stateMutability": "view",
      "type": "function"
    },
    {
      "inputs": [],
      "name": "mint",
      "outputs": [],
      "stateMutability": "nonpayable",
      "type": "function"
    },
    {
      "inputs": [],
      "name": "name",
      "outputs": [
        {
          "internalType": "string",
          "name": "",
          "type": "string"
        }
      ],
      "stateMutability": "view",
      "type": "function"
    },
    {
      "inputs": [],
      "name": "owner",
      "outputs": [
        {
          "internalType": "address",
          "name": "",
          "type": "address"
        }
      ],
      "stateMutability": "view",
      "type": "function"
    },
    {
      "inputs": [
        {
          "internalType": "uint256",
          "name": "tokenId",
          "type": "uint256"
        }
      ],
      "name": "ownerOf",
      "outputs": [
        {
          "internalType": "address",
          "name": "",
          "type": "address"
        }
      ],
      "stateMutability": "view",
      "type": "function"
    },
    {
      "inputs": [],
      "name": "raffler",
      "outputs": [
        {
          "internalType": "contract IRaffler",
          "name": "",
          "type": "address"
        }
      ],
      "stateMutability": "view",
      "type": "function"
    },
    {
      "inputs": [],
      "name": "renounceOwnership",
      "outputs": [],
      "stateMutability": "nonpayable",
      "type": "function"
    },
    {
      "inputs": [
        {
          "internalType": "uint256",
          "name": "_tokenId",
          "type": "uint256"
        },
        {
          "internalType": "uint256",
          "name": "_salePrice",
          "type": "uint256"
        }
      ],
      "name": "royaltyInfo",
      "outputs": [
        {
          "internalType": "address",
          "name": "",
          "type": "address"
        },
        {
          "internalType": "uint256",
          "name": "",
          "type": "uint256"
        }
      ],
      "stateMutability": "view",
      "type": "function"
    },
    {
      "inputs": [
        {
          "internalType": "address",
          "name": "from",
          "type": "address"
        },
        {
          "internalType": "address",
          "name": "to",
          "type": "address"
        },
        {
          "internalType": "uint256",
          "name": "tokenId",
          "type": "uint256"
        }
      ],
      "name": "safeTransferFrom",
      "outputs": [],
      "stateMutability": "nonpayable",
      "type": "function"
    },
    {
      "inputs": [
        {
          "internalType": "address",
          "name": "from",
          "type": "address"
        },
        {
          "internalType": "address",
          "name": "to",
          "type": "address"
        },
        {
          "internalType": "uint256",
          "name": "tokenId",
          "type": "uint256"
        },
        {
          "internalType": "bytes",
          "name": "_data",
          "type": "bytes"
        }
      ],
      "name": "safeTransferFrom",
      "outputs": [],
      "stateMutability": "nonpayable",
      "type": "function"
    },
    {
      "inputs": [
        {
          "internalType": "address",
          "name": "operator",
          "type": "address"
        },
        {
          "internalType": "bool",
          "name": "approved",
          "type": "bool"
        }
      ],
      "name": "setApprovalForAll",
      "outputs": [],
      "stateMutability": "nonpayable",
      "type": "function"
    },
    {
      "inputs": [
        {
          "internalType": "string",
          "name": "uri",
          "type": "string"
        }
      ],
      "name": "setConfigUri",
      "outputs": [],
      "stateMutability": "nonpayable",
      "type": "function"
    },
    {
      "inputs": [
        {
          "internalType": "address",
          "name": "to",
          "type": "address"
        }
      ],
      "name": "setRaffler",
      "outputs": [],
      "stateMutability": "nonpayable",
      "type": "function"
    },
    {
      "inputs": [
        {
          "internalType": "bytes4",
          "name": "interfaceId",
          "type": "bytes4"
        }
      ],
      "name": "supportsInterface",
      "outputs": [
        {
          "internalType": "bool",
          "name": "",
          "type": "bool"
        }
      ],
      "stateMutability": "view",
      "type": "function"
    },
    {
      "inputs": [],
      "name": "symbol",
      "outputs": [
        {
          "internalType": "string",
          "name": "",
          "type": "string"
        }
      ],
      "stateMutability": "view",
      "type": "function"
    },
    {
      "inputs": [],
      "name": "timelock",
      "outputs": [
        {
          "internalType": "uint256",
          "name": "",
          "type": "uint256"
        }
      ],
      "stateMutability": "view",
      "type": "function"
    },
    {
      "inputs": [],
      "name": "token",
      "outputs": [
        {
          "internalType": "contract IERC20",
          "name": "",
          "type": "address"
        }
      ],
      "stateMutability": "view",
      "type": "function"
    },
    {
      "inputs": [
        {
          "internalType": "uint256",
          "name": "index",
          "type": "uint256"
        }
      ],
      "name": "tokenByIndex",
      "outputs": [
        {
          "internalType": "uint256",
          "name": "",
          "type": "uint256"
        }
      ],
      "stateMutability": "view",
      "type": "function"
    },
    {
      "inputs": [
        {
          "internalType": "address",
          "name": "owner",
          "type": "address"
        },
        {
          "internalType": "uint256",
          "name": "index",
          "type": "uint256"
        }
      ],
      "name": "tokenOfOwnerByIndex",
      "outputs": [
        {
          "internalType": "uint256",
          "name": "",
          "type": "uint256"
        }
      ],
      "stateMutability": "view",
      "type": "function"
    },
    {
      "inputs": [
        {
          "internalType": "uint256",
          "name": "tokenId",
          "type": "uint256"
        }
      ],
      "name": "tokenURI",
      "outputs": [
        {
          "internalType": "string",
          "name": "",
          "type": "string"
        }
      ],
      "stateMutability": "view",
      "type": "function"
    },
    {
      "inputs": [],
      "name": "totalSupply",
      "outputs": [
        {
          "internalType": "uint256",
          "name": "",
          "type": "uint256"
        }
      ],
      "stateMutability": "view",
      "type": "function"
    },
    {
      "inputs": [
        {
          "internalType": "address",
          "name": "from",
          "type": "address"
        },
        {
          "internalType": "address",
          "name": "to",
          "type": "address"
        },
        {
          "internalType": "uint256",
          "name": "tokenId",
          "type": "uint256"
        }
      ],
      "name": "transferFrom",
      "outputs": [],
      "stateMutability": "nonpayable",
      "type": "function"
    },
    {
      "inputs": [
        {
          "internalType": "address",
          "name": "newOwner",
          "type": "address"
        }
      ],
      "name": "transferOwnership",
      "outputs": [],
      "stateMutability": "nonpayable",
      "type": "function"
    },
    {
      "inputs": [],
      "name": "withdraw",
      "outputs": [],
      "stateMutability": "nonpayable",
      "type": "function"
    }
  ],
  "bytecode": "0x60806040523480156200001157600080fd5b506040516200554c3803806200554c8339818101604052810190620000379190620003e8565b886040518060400160405280600981526020017f524146464c41424c45000000000000000000000000000000000000000000000081525081600290805190602001906200008692919062000298565b5080600390805190602001906200009f92919062000298565b505050620000c2620000b6620001ca60201b60201c565b620001d260201b60201c565b86600f9080519060200190620000da92919062000298565b508560109080519060200190620000f392919062000298565b5087601490805190602001906200010c92919062000298565b508460128190555081601760006101000a81548173ffffffffffffffffffffffffffffffffffffffff021916908373ffffffffffffffffffffffffffffffffffffffff160217905550806016819055508360158190555082600d60006101000a81548173ffffffffffffffffffffffffffffffffffffffff021916908373ffffffffffffffffffffffffffffffffffffffff160217905550600a601654620001b5919062000584565b6011819055505050505050505050506200076e565b600033905090565b6000600c60009054906101000a900473ffffffffffffffffffffffffffffffffffffffff16905081600c60006101000a81548173ffffffffffffffffffffffffffffffffffffffff021916908373ffffffffffffffffffffffffffffffffffffffff1602179055508173ffffffffffffffffffffffffffffffffffffffff168173ffffffffffffffffffffffffffffffffffffffff167f8be0079c531659141344cd1fd0a4f28419497f9722a3daafe3b4186f6b6457e060405160405180910390a35050565b828054620002a69062000630565b90600052602060002090601f016020900481019282620002ca576000855562000316565b82601f10620002e557805160ff191683800117855562000316565b8280016001018555821562000316579182015b8281111562000315578251825591602001919060010190620002f8565b5b50905062000325919062000329565b5090565b5b80821115620003445760008160009055506001016200032a565b5090565b60006200035f62000359846200054e565b62000525565b9050828152602081018484840111156200037857600080fd5b62000385848285620005fa565b509392505050565b6000815190506200039e816200073a565b92915050565b600082601f830112620003b657600080fd5b8151620003c884826020860162000348565b91505092915050565b600081519050620003e28162000754565b92915050565b60008060008060008060008060006101208a8c0312156200040857600080fd5b60008a015167ffffffffffffffff8111156200042357600080fd5b620004318c828d01620003a4565b99505060208a015167ffffffffffffffff8111156200044f57600080fd5b6200045d8c828d01620003a4565b98505060408a015167ffffffffffffffff8111156200047b57600080fd5b620004898c828d01620003a4565b97505060608a015167ffffffffffffffff811115620004a757600080fd5b620004b58c828d01620003a4565b9650506080620004c88c828d01620003d1565b95505060a0620004db8c828d01620003d1565b94505060c0620004ee8c828d016200038d565b93505060e0620005018c828d016200038d565b925050610100620005158c828d01620003d1565b9150509295985092959850929598565b60006200053162000544565b90506200053f828262000666565b919050565b6000604051905090565b600067ffffffffffffffff8211156200056c576200056b620006fa565b5b620005778262000729565b9050602081019050919050565b60006200059182620005f0565b91506200059e83620005f0565b925082620005b157620005b06200069c565b5b828204905092915050565b6000620005c982620005d0565b9050919050565b600073ffffffffffffffffffffffffffffffffffffffff82169050919050565b6000819050919050565b60005b838110156200061a578082015181840152602081019050620005fd565b838111156200062a576000848401525b50505050565b600060028204905060018216806200064957607f821691505b6020821081141562000660576200065f620006cb565b5b50919050565b620006718262000729565b810181811067ffffffffffffffff82111715620006935762000692620006fa565b5b80604052505050565b7f4e487b7100000000000000000000000000000000000000000000000000000000600052601260045260246000fd5b7f4e487b7100000000000000000000000000000000000000000000000000000000600052602260045260246000fd5b7f4e487b7100000000000000000000000000000000000000000000000000000000600052604160045260246000fd5b6000601f19601f8301169050919050565b6200074581620005bc565b81146200075157600080fd5b50565b6200075f81620005f0565b81146200076b57600080fd5b50565b614dce806200077e6000396000f3fe608060405234801561001057600080fd5b50600436106101e55760003560e01c806342842e0e1161010f578063a22cb465116100a2578063d714db6c11610071578063d714db6c1461055b578063e985e9c514610579578063f2fde38b146105a9578063fc0c546a146105c5576101e5565b8063a22cb465146104d5578063b88d4fde146104f1578063c87b56dd1461050d578063d33219b41461053d576101e5565b806370a08231116100de57806370a082311461045f578063715018a61461048f5780638da5cb5b1461049957806395d89b41146104b7576101e5565b806342842e0e146103c7578063475edfff146103e35780634f6ccce7146103ff5780636352211e1461042f576101e5565b806318160ddd11610187578063355274ea11610156578063355274ea14610365578063375df52b1461038357806337bba9c31461039f5780633ccfd60b146103bd576101e5565b806318160ddd146102ca57806323b872dd146102e85780632a55205a146103045780632f745c5914610335576101e5565b8063081812fc116101c3578063081812fc14610256578063095ea7b3146102865780631249c58b146102a257806313faede6146102ac576101e5565b806301ffc9a7146101ea57806302d05d3f1461021a57806306fdde0314610238575b600080fd5b61020460048036038101906101ff9190613700565b6105e3565b6040516102119190613e63565b60405180910390f35b6102226105f5565b60405161022f9190613d9c565b60405180910390f35b61024061061b565b60405161024d9190613eea565b60405180910390f35b610270600480360381019061026b9190613793565b6106ad565b60405161027d9190613d9c565b60405180910390f35b6102a0600480360381019061029b919061369b565b610732565b005b6102aa61084a565b005b6102b4610ad8565b6040516102c1919061420c565b60405180910390f35b6102d2610ade565b6040516102df919061420c565b60405180910390f35b61030260048036038101906102fd9190613595565b610aeb565b005b61031e600480360381019061031991906137e5565b610b4b565b60405161032c929190613e3a565b60405180910390f35b61034f600480360381019061034a919061369b565b610d36565b60405161035c919061420c565b60405180910390f35b61036d610ddb565b60405161037a919061420c565b60405180910390f35b61039d60048036038101906103989190613530565b610de1565b005b6103a7610f7a565b6040516103b49190613eea565b60405180910390f35b6103c5611008565b005b6103e160048036038101906103dc9190613595565b6111f4565b005b6103fd60048036038101906103f89190613752565b611214565b005b61041960048036038101906104149190613793565b6112aa565b604051610426919061420c565b60405180910390f35b61044960048036038101906104449190613793565b611341565b6040516104569190613d9c565b60405180910390f35b61047960048036038101906104749190613530565b6113f3565b604051610486919061420c565b60405180910390f35b6104976114ab565b005b6104a1611533565b6040516104ae9190613d9c565b60405180910390f35b6104bf61155d565b6040516104cc9190613eea565b60405180910390f35b6104ef60048036038101906104ea919061365f565b6115ef565b005b61050b600480360381019061050691906135e4565b611605565b005b61052760048036038101906105229190613793565b611667565b6040516105349190613eea565b60405180910390f35b6105456116a1565b604051610552919061420c565b60405180910390f35b6105636116a7565b6040516105709190613ecf565b60405180910390f35b610593600480360381019061058e9190613559565b6116cd565b6040516105a09190613e63565b60405180910390f35b6105c360048036038101906105be9190613530565b611761565b005b6105cd611859565b6040516105da9190613eb4565b60405180910390f35b60006105ee8261187f565b9050919050565b600d60009054906101000a900473ffffffffffffffffffffffffffffffffffffffff1681565b60606002805461062a90614542565b80601f016020809104026020016040519081016040528092919081815260200182805461065690614542565b80156106a35780601f10610678576101008083540402835291602001916106a3565b820191906000526020600020905b81548152906001019060200180831161068657829003601f168201915b5050505050905090565b60006106b882611891565b6106f7576040517f08c379a00000000000000000000000000000000000000000000000000000000081526004016106ee9061410c565b60405180910390fd5b6006600083815260200190815260200160002060009054906101000a900473ffffffffffffffffffffffffffffffffffffffff169050919050565b600061073d82611341565b90508073ffffffffffffffffffffffffffffffffffffffff168373ffffffffffffffffffffffffffffffffffffffff1614156107ae576040517f08c379a00000000000000000000000000000000000000000000000000000000081526004016107a59061416c565b60405180910390fd5b8073ffffffffffffffffffffffffffffffffffffffff166107cd6118fd565b73ffffffffffffffffffffffffffffffffffffffff1614806107fc57506107fb816107f66118fd565b6116cd565b5b61083b576040517f08c379a00000000000000000000000000000000000000000000000000000000081526004016108329061404c565b60405180910390fd5b6108458383611905565b505050565b6000601554111561089b5760155442101561089a576040517f08c379a00000000000000000000000000000000000000000000000000000000081526004016108919061414c565b60405180910390fd5b5b60125460016108a8610ade565b6108b29190614325565b11156108f3576040517f08c379a00000000000000000000000000000000000000000000000000000000081526004016108ea906140cc565b60405180910390fd5b601760009054906101000a900473ffffffffffffffffffffffffffffffffffffffff1673ffffffffffffffffffffffffffffffffffffffff166323b872dd33306016546040518463ffffffff1660e01b815260040161095493929190613db7565b602060405180830381600087803b15801561096e57600080fd5b505af1158015610982573d6000803e3d6000fd5b505050506040513d601f19601f820116820180604052508101906109a691906136d7565b6109e5576040517f08c379a00000000000000000000000000000000000000000000000000000000081526004016109dc90613f0c565b60405180910390fd5b601760009054906101000a900473ffffffffffffffffffffffffffffffffffffffff1673ffffffffffffffffffffffffffffffffffffffff1663a9059cbb601360009054906101000a900473ffffffffffffffffffffffffffffffffffffffff166011546040518363ffffffff1660e01b8152600401610a66929190613e3a565b602060405180830381600087803b158015610a8057600080fd5b505af1158015610a94573d6000803e3d6000fd5b505050506040513d601f19601f82011682018060405250810190610ab891906136d7565b50610ac3600e6119be565b610ad633610ad1600e6119d4565b6119e2565b565b60165481565b6000600a80549050905090565b610afc610af66118fd565b82611a00565b610b3b576040517f08c379a0000000000000000000000000000000000000000000000000000000008152600401610b329061418c565b60405180910390fd5b610b46838383611ade565b505050565b6000806000600160008681526020019081526020016000206040518060400160405290816000820160009054906101000a900473ffffffffffffffffffffffffffffffffffffffff1673ffffffffffffffffffffffffffffffffffffffff1673ffffffffffffffffffffffffffffffffffffffff1681526020016000820160149054906101000a90046bffffffffffffffffffffffff166bffffffffffffffffffffffff166bffffffffffffffffffffffff16815250509050600073ffffffffffffffffffffffffffffffffffffffff16816000015173ffffffffffffffffffffffffffffffffffffffff161415610ce15760006040518060400160405290816000820160009054906101000a900473ffffffffffffffffffffffffffffffffffffffff1673ffffffffffffffffffffffffffffffffffffffff1673ffffffffffffffffffffffffffffffffffffffff1681526020016000820160149054906101000a90046bffffffffffffffffffffffff166bffffffffffffffffffffffff166bffffffffffffffffffffffff168152505090505b6000610ceb611d45565b6bffffffffffffffffffffffff1682602001516bffffffffffffffffffffffff1686610d1791906143ac565b610d21919061437b565b90508160000151819350935050509250929050565b6000610d41836113f3565b8210610d82576040517f08c379a0000000000000000000000000000000000000000000000000000000008152600401610d7990613f2c565b60405180910390fd5b600860008473ffffffffffffffffffffffffffffffffffffffff1673ffffffffffffffffffffffffffffffffffffffff168152602001908152602001600020600083815260200190815260200160002054905092915050565b60125481565b610de96118fd565b73ffffffffffffffffffffffffffffffffffffffff16610e07611533565b73ffffffffffffffffffffffffffffffffffffffff1614610e5d576040517f08c379a0000000000000000000000000000000000000000000000000000000008152600401610e549061412c565b60405180910390fd5b610e7c8173ffffffffffffffffffffffffffffffffffffffff16611d4f565b8015610eae5750610ead817f85d15e5d00000000000000000000000000000000000000000000000000000000611d72565b5b15610f3c5780601360006101000a81548173ffffffffffffffffffffffffffffffffffffffff021916908373ffffffffffffffffffffffffffffffffffffffff160217905550610f00816103e8611d97565b7fe69ae954380d3509a4d5e45681d32c5843904c2cc7602407bdf8abc8586cee7681604051610f2f9190613d9c565b60405180910390a1610f77565b6040517f08c379a0000000000000000000000000000000000000000000000000000000008152600401610f6e9061406c565b60405180910390fd5b50565b60148054610f8790614542565b80601f0160208091040260200160405190810160405280929190818152602001828054610fb390614542565b80156110005780601f10610fd557610100808354040283529160200191611000565b820191906000526020600020905b815481529060010190602001808311610fe357829003601f168201915b505050505081565b3373ffffffffffffffffffffffffffffffffffffffff16600d60009054906101000a900473ffffffffffffffffffffffffffffffffffffffff1673ffffffffffffffffffffffffffffffffffffffff1614611098576040517f08c379a000000000000000000000000000000000000000000000000000000000815260040161108f90613fcc565b60405180910390fd5b601760009054906101000a900473ffffffffffffffffffffffffffffffffffffffff1673ffffffffffffffffffffffffffffffffffffffff1663a9059cbb33601760009054906101000a900473ffffffffffffffffffffffffffffffffffffffff1673ffffffffffffffffffffffffffffffffffffffff166370a08231306040518263ffffffff1660e01b81526004016111329190613d9c565b60206040518083038186803b15801561114a57600080fd5b505afa15801561115e573d6000803e3d6000fd5b505050506040513d601f19601f8201168201806040525081019061118291906137bc565b6040518363ffffffff1660e01b815260040161119f929190613e3a565b602060405180830381600087803b1580156111b957600080fd5b505af11580156111cd573d6000803e3d6000fd5b505050506040513d601f19601f820116820180604052508101906111f191906136d7565b50565b61120f83838360405180602001604052806000815250611605565b505050565b61121c6118fd565b73ffffffffffffffffffffffffffffffffffffffff1661123a611533565b73ffffffffffffffffffffffffffffffffffffffff1614611290576040517f08c379a00000000000000000000000000000000000000000000000000000000081526004016112879061412c565b60405180910390fd5b80601490805190602001906112a692919061332a565b5050565b60006112b4610ade565b82106112f5576040517f08c379a00000000000000000000000000000000000000000000000000000000081526004016112ec906141ac565b60405180910390fd5b600a828154811061132f577f4e487b7100000000000000000000000000000000000000000000000000000000600052603260045260246000fd5b90600052602060002001549050919050565b6000806004600084815260200190815260200160002060009054906101000a900473ffffffffffffffffffffffffffffffffffffffff169050600073ffffffffffffffffffffffffffffffffffffffff168173ffffffffffffffffffffffffffffffffffffffff1614156113ea576040517f08c379a00000000000000000000000000000000000000000000000000000000081526004016113e1906140ac565b60405180910390fd5b80915050919050565b60008073ffffffffffffffffffffffffffffffffffffffff168273ffffffffffffffffffffffffffffffffffffffff161415611464576040517f08c379a000000000000000000000000000000000000000000000000000000000815260040161145b9061408c565b60405180910390fd5b600560008373ffffffffffffffffffffffffffffffffffffffff1673ffffffffffffffffffffffffffffffffffffffff168152602001908152602001600020549050919050565b6114b36118fd565b73ffffffffffffffffffffffffffffffffffffffff166114d1611533565b73ffffffffffffffffffffffffffffffffffffffff1614611527576040517f08c379a000000000000000000000000000000000000000000000000000000000815260040161151e9061412c565b60405180910390fd5b6115316000611f2c565b565b6000600c60009054906101000a900473ffffffffffffffffffffffffffffffffffffffff16905090565b60606003805461156c90614542565b80601f016020809104026020016040519081016040528092919081815260200182805461159890614542565b80156115e55780601f106115ba576101008083540402835291602001916115e5565b820191906000526020600020905b8154815290600101906020018083116115c857829003601f168201915b5050505050905090565b6116016115fa6118fd565b8383611ff2565b5050565b6116166116106118fd565b83611a00565b611655576040517f08c379a000000000000000000000000000000000000000000000000000000000815260040161164c9061418c565b60405180910390fd5b6116618484848461215f565b50505050565b60606116716121bb565b61167a83612390565b60405160200161168b929190613d0e565b6040516020818303038152906040529050919050565b60155481565b601360009054906101000a900473ffffffffffffffffffffffffffffffffffffffff1681565b6000600760008473ffffffffffffffffffffffffffffffffffffffff1673ffffffffffffffffffffffffffffffffffffffff16815260200190815260200160002060008373ffffffffffffffffffffffffffffffffffffffff1673ffffffffffffffffffffffffffffffffffffffff16815260200190815260200160002060009054906101000a900460ff16905092915050565b6117696118fd565b73ffffffffffffffffffffffffffffffffffffffff16611787611533565b73ffffffffffffffffffffffffffffffffffffffff16146117dd576040517f08c379a00000000000000000000000000000000000000000000000000000000081526004016117d49061412c565b60405180910390fd5b600073ffffffffffffffffffffffffffffffffffffffff168173ffffffffffffffffffffffffffffffffffffffff16141561184d576040517f08c379a000000000000000000000000000000000000000000000000000000000815260040161184490613f6c565b60405180910390fd5b61185681611f2c565b50565b601760009054906101000a900473ffffffffffffffffffffffffffffffffffffffff1681565b600061188a8261253d565b9050919050565b60008073ffffffffffffffffffffffffffffffffffffffff166004600084815260200190815260200160002060009054906101000a900473ffffffffffffffffffffffffffffffffffffffff1673ffffffffffffffffffffffffffffffffffffffff1614159050919050565b600033905090565b816006600083815260200190815260200160002060006101000a81548173ffffffffffffffffffffffffffffffffffffffff021916908373ffffffffffffffffffffffffffffffffffffffff160217905550808273ffffffffffffffffffffffffffffffffffffffff1661197883611341565b73ffffffffffffffffffffffffffffffffffffffff167f8c5be1e5ebec7d5bd14f71427d1e84f3dd0314c0f7b2291e5b200ac8c7c3b92560405160405180910390a45050565b6001816000016000828254019250508190555050565b600081600001549050919050565b6119fc8282604051806020016040528060008152506125b7565b5050565b6000611a0b82611891565b611a4a576040517f08c379a0000000000000000000000000000000000000000000000000000000008152600401611a419061402c565b60405180910390fd5b6000611a5583611341565b90508073ffffffffffffffffffffffffffffffffffffffff168473ffffffffffffffffffffffffffffffffffffffff161480611ac457508373ffffffffffffffffffffffffffffffffffffffff16611aac846106ad565b73ffffffffffffffffffffffffffffffffffffffff16145b80611ad55750611ad481856116cd565b5b91505092915050565b8273ffffffffffffffffffffffffffffffffffffffff16611afe82611341565b73ffffffffffffffffffffffffffffffffffffffff1614611b54576040517f08c379a0000000000000000000000000000000000000000000000000000000008152600401611b4b90613f8c565b60405180910390fd5b600073ffffffffffffffffffffffffffffffffffffffff168273ffffffffffffffffffffffffffffffffffffffff161415611bc4576040517f08c379a0000000000000000000000000000000000000000000000000000000008152600401611bbb90613fec565b60405180910390fd5b611bcf838383612612565b611bda600082611905565b6001600560008573ffffffffffffffffffffffffffffffffffffffff1673ffffffffffffffffffffffffffffffffffffffff1681526020019081526020016000206000828254611c2a9190614406565b925050819055506001600560008473ffffffffffffffffffffffffffffffffffffffff1673ffffffffffffffffffffffffffffffffffffffff1681526020019081526020016000206000828254611c819190614325565b92505081905550816004600083815260200190815260200160002060006101000a81548173ffffffffffffffffffffffffffffffffffffffff021916908373ffffffffffffffffffffffffffffffffffffffff160217905550808273ffffffffffffffffffffffffffffffffffffffff168473ffffffffffffffffffffffffffffffffffffffff167fddf252ad1be2c89b69c2b068fc378daa952ba7f163c4a11628f55a4df523b3ef60405160405180910390a4611d40838383612622565b505050565b6000612710905090565b6000808273ffffffffffffffffffffffffffffffffffffffff163b119050919050565b6000611d7d836127e5565b8015611d8f5750611d8e8383612832565b5b905092915050565b611d9f611d45565b6bffffffffffffffffffffffff16816bffffffffffffffffffffffff161115611dfd576040517f08c379a0000000000000000000000000000000000000000000000000000000008152600401611df4906141cc565b60405180910390fd5b600073ffffffffffffffffffffffffffffffffffffffff168273ffffffffffffffffffffffffffffffffffffffff161415611e6d576040517f08c379a0000000000000000000000000000000000000000000000000000000008152600401611e64906141ec565b60405180910390fd5b60405180604001604052808373ffffffffffffffffffffffffffffffffffffffff168152602001826bffffffffffffffffffffffff168152506000808201518160000160006101000a81548173ffffffffffffffffffffffffffffffffffffffff021916908373ffffffffffffffffffffffffffffffffffffffff16021790555060208201518160000160146101000a8154816bffffffffffffffffffffffff02191690836bffffffffffffffffffffffff1602179055509050505050565b6000600c60009054906101000a900473ffffffffffffffffffffffffffffffffffffffff16905081600c60006101000a81548173ffffffffffffffffffffffffffffffffffffffff021916908373ffffffffffffffffffffffffffffffffffffffff1602179055508173ffffffffffffffffffffffffffffffffffffffff168173ffffffffffffffffffffffffffffffffffffffff167f8be0079c531659141344cd1fd0a4f28419497f9722a3daafe3b4186f6b6457e060405160405180910390a35050565b8173ffffffffffffffffffffffffffffffffffffffff168373ffffffffffffffffffffffffffffffffffffffff161415612061576040517f08c379a00000000000000000000000000000000000000000000000000000000081526004016120589061400c565b60405180910390fd5b80600760008573ffffffffffffffffffffffffffffffffffffffff1673ffffffffffffffffffffffffffffffffffffffff16815260200190815260200160002060008473ffffffffffffffffffffffffffffffffffffffff1673ffffffffffffffffffffffffffffffffffffffff16815260200190815260200160002060006101000a81548160ff0219169083151502179055508173ffffffffffffffffffffffffffffffffffffffff168373ffffffffffffffffffffffffffffffffffffffff167f17307eab39ab6107e8899845ad3d59bd9653f200f220920489ca2b5937696c31836040516121529190613e63565b60405180910390a3505050565b61216a848484611ade565b6121768484848461295d565b6121b5576040517f08c379a00000000000000000000000000000000000000000000000000000000081526004016121ac90613f4c565b60405180910390fd5b50505050565b60606000601080546121cc90614542565b80601f01602080910402602001604051908101604052809291908181526020018280546121f890614542565b80156122455780601f1061221a57610100808354040283529160200191612245565b820191906000526020600020905b81548152906001019060200180831161222857829003601f168201915b50505050509050600081511180156122665750601254612263610ade565b10155b156122fe576010805461227890614542565b80601f01602080910402602001604051908101604052809291908181526020018280546122a490614542565b80156122f15780601f106122c6576101008083540402835291602001916122f1565b820191906000526020600020905b8154815290600101906020018083116122d457829003601f168201915b505050505091505061238d565b600f805461230b90614542565b80601f016020809104026020016040519081016040528092919081815260200182805461233790614542565b80156123845780601f1061235957610100808354040283529160200191612384565b820191906000526020600020905b81548152906001019060200180831161236757829003601f168201915b50505050509150505b90565b606060008214156123d8576040518060400160405280600181526020017f30000000000000000000000000000000000000000000000000000000000000008152509050612538565b600082905060005b6000821461240a5780806123f3906145a5565b915050600a82612403919061437b565b91506123e0565b60008167ffffffffffffffff81111561244c577f4e487b7100000000000000000000000000000000000000000000000000000000600052604160045260246000fd5b6040519080825280601f01601f19166020018201604052801561247e5781602001600182028036833780820191505090505b5090505b60008514612531576001826124979190614406565b9150600a856124a6919061461c565b60306124b29190614325565b60f81b8183815181106124ee577f4e487b7100000000000000000000000000000000000000000000000000000000600052603260045260246000fd5b60200101907effffffffffffffffffffffffffffffffffffffffffffffffffffffffffffff1916908160001a905350600a8561252a919061437b565b9450612482565b8093505050505b919050565b60007f780e9d63000000000000000000000000000000000000000000000000000000007bffffffffffffffffffffffffffffffffffffffffffffffffffffffff1916827bffffffffffffffffffffffffffffffffffffffffffffffffffffffff191614806125b057506125af82612af4565b5b9050919050565b6125c18383612bd6565b6125ce600084848461295d565b61260d576040517f08c379a000000000000000000000000000000000000000000000000000000000815260040161260490613f4c565b60405180910390fd5b505050565b61261d838383612db0565b505050565b61262d838383612ec4565b60004442858585604051602001612648959493929190613d3d565b604051602081830303815290604052805190602001209050601360009054906101000a900473ffffffffffffffffffffffffffffffffffffffff1673ffffffffffffffffffffffffffffffffffffffff1663771602f78360016126a9610ade565b8560001c6126b7919061461c565b6126c19190614325565b6040518363ffffffff1660e01b81526004016126de929190614227565b602060405180830381600087803b1580156126f857600080fd5b505af115801561270c573d6000803e3d6000fd5b505050506040513d601f19601f8201168201806040525081019061273091906136d7565b50601360009054906101000a900473ffffffffffffffffffffffffffffffffffffffff1673ffffffffffffffffffffffffffffffffffffffff1663629374ab826040518263ffffffff1660e01b815260040161278c9190613e7e565b602060405180830381600087803b1580156127a657600080fd5b505af11580156127ba573d6000803e3d6000fd5b505050506040513d601f19601f820116820180604052508101906127de91906136d7565b5050505050565b6000612811827f01ffc9a700000000000000000000000000000000000000000000000000000000612832565b801561282b57506128298263ffffffff60e01b612832565b155b9050919050565b6000806301ffc9a760e01b8360405160240161284e9190613e99565b604051602081830303815290604052907bffffffffffffffffffffffffffffffffffffffffffffffffffffffff19166020820180517bffffffffffffffffffffffffffffffffffffffffffffffffffffffff838183161783525050505090506000808573ffffffffffffffffffffffffffffffffffffffff16617530846040516128d89190613cf7565b6000604051808303818686fa925050503d8060008114612914576040519150601f19603f3d011682016040523d82523d6000602084013e612919565b606091505b50915091506020815110156129345760009350505050612957565b81801561295157508080602001905181019061295091906136d7565b5b93505050505b92915050565b600061297e8473ffffffffffffffffffffffffffffffffffffffff16611d4f565b15612ae7578373ffffffffffffffffffffffffffffffffffffffff1663150b7a026129a76118fd565b8786866040518563ffffffff1660e01b81526004016129c99493929190613dee565b602060405180830381600087803b1580156129e357600080fd5b505af1925050508015612a1457506040513d601f19601f82011682018060405250810190612a119190613729565b60015b612a97573d8060008114612a44576040519150601f19603f3d011682016040523d82523d6000602084013e612a49565b606091505b50600081511415612a8f576040517f08c379a0000000000000000000000000000000000000000000000000000000008152600401612a8690613f4c565b60405180910390fd5b805181602001fd5b63150b7a0260e01b7bffffffffffffffffffffffffffffffffffffffffffffffffffffffff1916817bffffffffffffffffffffffffffffffffffffffffffffffffffffffff191614915050612aec565b600190505b949350505050565b60007f80ac58cd000000000000000000000000000000000000000000000000000000007bffffffffffffffffffffffffffffffffffffffffffffffffffffffff1916827bffffffffffffffffffffffffffffffffffffffffffffffffffffffff19161480612bbf57507f5b5e139f000000000000000000000000000000000000000000000000000000007bffffffffffffffffffffffffffffffffffffffffffffffffffffffff1916827bffffffffffffffffffffffffffffffffffffffffffffffffffffffff1916145b80612bcf5750612bce82612ec9565b5b9050919050565b600073ffffffffffffffffffffffffffffffffffffffff168273ffffffffffffffffffffffffffffffffffffffff161415612c46576040517f08c379a0000000000000000000000000000000000000000000000000000000008152600401612c3d906140ec565b60405180910390fd5b612c4f81611891565b15612c8f576040517f08c379a0000000000000000000000000000000000000000000000000000000008152600401612c8690613fac565b60405180910390fd5b612c9b60008383612612565b6001600560008473ffffffffffffffffffffffffffffffffffffffff1673ffffffffffffffffffffffffffffffffffffffff1681526020019081526020016000206000828254612ceb9190614325565b92505081905550816004600083815260200190815260200160002060006101000a81548173ffffffffffffffffffffffffffffffffffffffff021916908373ffffffffffffffffffffffffffffffffffffffff160217905550808273ffffffffffffffffffffffffffffffffffffffff16600073ffffffffffffffffffffffffffffffffffffffff167fddf252ad1be2c89b69c2b068fc378daa952ba7f163c4a11628f55a4df523b3ef60405160405180910390a4612dac60008383612622565b5050565b612dbb838383612f43565b600073ffffffffffffffffffffffffffffffffffffffff168373ffffffffffffffffffffffffffffffffffffffff161415612dfe57612df981612f48565b612e3d565b8173ffffffffffffffffffffffffffffffffffffffff168373ffffffffffffffffffffffffffffffffffffffff1614612e3c57612e3b8382612f91565b5b5b600073ffffffffffffffffffffffffffffffffffffffff168273ffffffffffffffffffffffffffffffffffffffff161415612e8057612e7b816130fe565b612ebf565b8273ffffffffffffffffffffffffffffffffffffffff168273ffffffffffffffffffffffffffffffffffffffff1614612ebe57612ebd8282613241565b5b5b505050565b505050565b60007f2a55205a000000000000000000000000000000000000000000000000000000007bffffffffffffffffffffffffffffffffffffffffffffffffffffffff1916827bffffffffffffffffffffffffffffffffffffffffffffffffffffffff19161480612f3c5750612f3b826132c0565b5b9050919050565b505050565b600a80549050600b600083815260200190815260200160002081905550600a81908060018154018082558091505060019003906000526020600020016000909190919091505550565b60006001612f9e846113f3565b612fa89190614406565b905060006009600084815260200190815260200160002054905081811461308d576000600860008673ffffffffffffffffffffffffffffffffffffffff1673ffffffffffffffffffffffffffffffffffffffff168152602001908152602001600020600084815260200190815260200160002054905080600860008773ffffffffffffffffffffffffffffffffffffffff1673ffffffffffffffffffffffffffffffffffffffff168152602001908152602001600020600084815260200190815260200160002081905550816009600083815260200190815260200160002081905550505b6009600084815260200190815260200160002060009055600860008573ffffffffffffffffffffffffffffffffffffffff1673ffffffffffffffffffffffffffffffffffffffff16815260200190815260200160002060008381526020019081526020016000206000905550505050565b60006001600a805490506131129190614406565b90506000600b60008481526020019081526020016000205490506000600a8381548110613168577f4e487b7100000000000000000000000000000000000000000000000000000000600052603260045260246000fd5b9060005260206000200154905080600a83815481106131b0577f4e487b7100000000000000000000000000000000000000000000000000000000600052603260045260246000fd5b906000526020600020018190555081600b600083815260200190815260200160002081905550600b600085815260200190815260200160002060009055600a805480613225577f4e487b7100000000000000000000000000000000000000000000000000000000600052603160045260246000fd5b6001900381819060005260206000200160009055905550505050565b600061324c836113f3565b905081600860008573ffffffffffffffffffffffffffffffffffffffff1673ffffffffffffffffffffffffffffffffffffffff168152602001908152602001600020600083815260200190815260200160002081905550806009600084815260200190815260200160002081905550505050565b60007f01ffc9a7000000000000000000000000000000000000000000000000000000007bffffffffffffffffffffffffffffffffffffffffffffffffffffffff1916827bffffffffffffffffffffffffffffffffffffffffffffffffffffffff1916149050919050565b82805461333690614542565b90600052602060002090601f016020900481019282613358576000855561339f565b82601f1061337157805160ff191683800117855561339f565b8280016001018555821561339f579182015b8281111561339e578251825591602001919060010190613383565b5b5090506133ac91906133b0565b5090565b5b808211156133c95760008160009055506001016133b1565b5090565b60006133e06133db84614275565b614250565b9050828152602081018484840111156133f857600080fd5b613403848285614500565b509392505050565b600061341e613419846142a6565b614250565b90508281526020810184848401111561343657600080fd5b613441848285614500565b509392505050565b60008135905061345881614d3c565b92915050565b60008135905061346d81614d53565b92915050565b60008151905061348281614d53565b92915050565b60008135905061349781614d6a565b92915050565b6000815190506134ac81614d6a565b92915050565b600082601f8301126134c357600080fd5b81356134d38482602086016133cd565b91505092915050565b600082601f8301126134ed57600080fd5b81356134fd84826020860161340b565b91505092915050565b60008135905061351581614d81565b92915050565b60008151905061352a81614d81565b92915050565b60006020828403121561354257600080fd5b600061355084828501613449565b91505092915050565b6000806040838503121561356c57600080fd5b600061357a85828601613449565b925050602061358b85828601613449565b9150509250929050565b6000806000606084860312156135aa57600080fd5b60006135b886828701613449565b93505060206135c986828701613449565b92505060406135da86828701613506565b9150509250925092565b600080600080608085870312156135fa57600080fd5b600061360887828801613449565b945050602061361987828801613449565b935050604061362a87828801613506565b925050606085013567ffffffffffffffff81111561364757600080fd5b613653878288016134b2565b91505092959194509250565b6000806040838503121561367257600080fd5b600061368085828601613449565b92505060206136918582860161345e565b9150509250929050565b600080604083850312156136ae57600080fd5b60006136bc85828601613449565b92505060206136cd85828601613506565b9150509250929050565b6000602082840312156136e957600080fd5b60006136f784828501613473565b91505092915050565b60006020828403121561371257600080fd5b600061372084828501613488565b91505092915050565b60006020828403121561373b57600080fd5b60006137498482850161349d565b91505092915050565b60006020828403121561376457600080fd5b600082013567ffffffffffffffff81111561377e57600080fd5b61378a848285016134dc565b91505092915050565b6000602082840312156137a557600080fd5b60006137b384828501613506565b91505092915050565b6000602082840312156137ce57600080fd5b60006137dc8482850161351b565b91505092915050565b600080604083850312156137f857600080fd5b600061380685828601613506565b925050602061381785828601613506565b9150509250929050565b61382a8161443a565b82525050565b61384161383c8261443a565b6145ee565b82525050565b6138508161444c565b82525050565b61385f81614458565b82525050565b61386e81614462565b82525050565b600061387f826142d7565b61388981856142ed565b935061389981856020860161450f565b6138a281614709565b840191505092915050565b60006138b8826142d7565b6138c281856142fe565b93506138d281856020860161450f565b80840191505092915050565b6138e7816144b8565b82525050565b6138f6816144dc565b82525050565b6000613907826142e2565b6139118185614309565b935061392181856020860161450f565b61392a81614709565b840191505092915050565b6000613940826142e2565b61394a818561431a565b935061395a81856020860161450f565b80840191505092915050565b6000613973600883614309565b915061397e82614727565b602082019050919050565b6000613996602b83614309565b91506139a182614750565b604082019050919050565b60006139b9603283614309565b91506139c48261479f565b604082019050919050565b60006139dc602683614309565b91506139e7826147ee565b604082019050919050565b60006139ff602583614309565b9150613a0a8261483d565b604082019050919050565b6000613a22601c83614309565b9150613a2d8261488c565b602082019050919050565b6000613a45601983614309565b9150613a50826148b5565b602082019050919050565b6000613a68602483614309565b9150613a73826148de565b604082019050919050565b6000613a8b601983614309565b9150613a968261492d565b602082019050919050565b6000613aae602c83614309565b9150613ab982614956565b604082019050919050565b6000613ad1603883614309565b9150613adc826149a5565b604082019050919050565b6000613af4601983614309565b9150613aff826149f4565b602082019050919050565b6000613b17602a83614309565b9150613b2282614a1d565b604082019050919050565b6000613b3a602983614309565b9150613b4582614a6c565b604082019050919050565b6000613b5d601283614309565b9150613b6882614abb565b602082019050919050565b6000613b80602083614309565b9150613b8b82614ae4565b602082019050919050565b6000613ba3602c83614309565b9150613bae82614b0d565b604082019050919050565b6000613bc660058361431a565b9150613bd182614b5c565b600582019050919050565b6000613be9602083614309565b9150613bf482614b85565b602082019050919050565b6000613c0c601583614309565b9150613c1782614bae565b602082019050919050565b6000613c2f602183614309565b9150613c3a82614bd7565b604082019050919050565b6000613c52603183614309565b9150613c5d82614c26565b604082019050919050565b6000613c75602c83614309565b9150613c8082614c75565b604082019050919050565b6000613c98602a83614309565b9150613ca382614cc4565b604082019050919050565b6000613cbb601983614309565b9150613cc682614d13565b602082019050919050565b613cda816144ae565b82525050565b613cf1613cec826144ae565b614612565b82525050565b6000613d0382846138ad565b915081905092915050565b6000613d1a8285613935565b9150613d268284613935565b9150613d3182613bb9565b91508190509392505050565b6000613d498288613ce0565b602082019150613d598287613ce0565b602082019150613d698286613830565b601482019150613d798285613830565b601482019150613d898284613ce0565b6020820191508190509695505050505050565b6000602082019050613db16000830184613821565b92915050565b6000606082019050613dcc6000830186613821565b613dd96020830185613821565b613de66040830184613cd1565b949350505050565b6000608082019050613e036000830187613821565b613e106020830186613821565b613e1d6040830185613cd1565b8181036060830152613e2f8184613874565b905095945050505050565b6000604082019050613e4f6000830185613821565b613e5c6020830184613cd1565b9392505050565b6000602082019050613e786000830184613847565b92915050565b6000602082019050613e936000830184613856565b92915050565b6000602082019050613eae6000830184613865565b92915050565b6000602082019050613ec960008301846138de565b92915050565b6000602082019050613ee460008301846138ed565b92915050565b60006020820190508181036000830152613f0481846138fc565b905092915050565b60006020820190508181036000830152613f2581613966565b9050919050565b60006020820190508181036000830152613f4581613989565b9050919050565b60006020820190508181036000830152613f65816139ac565b9050919050565b60006020820190508181036000830152613f85816139cf565b9050919050565b60006020820190508181036000830152613fa5816139f2565b9050919050565b60006020820190508181036000830152613fc581613a15565b9050919050565b60006020820190508181036000830152613fe581613a38565b9050919050565b6000602082019050818103600083015261400581613a5b565b9050919050565b6000602082019050818103600083015261402581613a7e565b9050919050565b6000602082019050818103600083015261404581613aa1565b9050919050565b6000602082019050818103600083015261406581613ac4565b9050919050565b6000602082019050818103600083015261408581613ae7565b9050919050565b600060208201905081810360008301526140a581613b0a565b9050919050565b600060208201905081810360008301526140c581613b2d565b9050919050565b600060208201905081810360008301526140e581613b50565b9050919050565b6000602082019050818103600083015261410581613b73565b9050919050565b6000602082019050818103600083015261412581613b96565b9050919050565b6000602082019050818103600083015261414581613bdc565b9050919050565b6000602082019050818103600083015261416581613bff565b9050919050565b6000602082019050818103600083015261418581613c22565b9050919050565b600060208201905081810360008301526141a581613c45565b9050919050565b600060208201905081810360008301526141c581613c68565b9050919050565b600060208201905081810360008301526141e581613c8b565b9050919050565b6000602082019050818103600083015261420581613cae565b9050919050565b60006020820190506142216000830184613cd1565b92915050565b600060408201905061423c6000830185613cd1565b6142496020830184613cd1565b9392505050565b600061425a61426b565b90506142668282614574565b919050565b6000604051905090565b600067ffffffffffffffff8211156142905761428f6146da565b5b61429982614709565b9050602081019050919050565b600067ffffffffffffffff8211156142c1576142c06146da565b5b6142ca82614709565b9050602081019050919050565b600081519050919050565b600081519050919050565b600082825260208201905092915050565b600081905092915050565b600082825260208201905092915050565b600081905092915050565b6000614330826144ae565b915061433b836144ae565b9250827fffffffffffffffffffffffffffffffffffffffffffffffffffffffffffffffff038211156143705761436f61464d565b5b828201905092915050565b6000614386826144ae565b9150614391836144ae565b9250826143a1576143a061467c565b5b828204905092915050565b60006143b7826144ae565b91506143c2836144ae565b9250817fffffffffffffffffffffffffffffffffffffffffffffffffffffffffffffffff04831182151516156143fb576143fa61464d565b5b828202905092915050565b6000614411826144ae565b915061441c836144ae565b92508282101561442f5761442e61464d565b5b828203905092915050565b60006144458261448e565b9050919050565b60008115159050919050565b6000819050919050565b60007fffffffff0000000000000000000000000000000000000000000000000000000082169050919050565b600073ffffffffffffffffffffffffffffffffffffffff82169050919050565b6000819050919050565b60006144c3826144ca565b9050919050565b60006144d58261448e565b9050919050565b60006144e7826144ee565b9050919050565b60006144f98261448e565b9050919050565b82818337600083830152505050565b60005b8381101561452d578082015181840152602081019050614512565b8381111561453c576000848401525b50505050565b6000600282049050600182168061455a57607f821691505b6020821081141561456e5761456d6146ab565b5b50919050565b61457d82614709565b810181811067ffffffffffffffff8211171561459c5761459b6146da565b5b80604052505050565b60006145b0826144ae565b91507fffffffffffffffffffffffffffffffffffffffffffffffffffffffffffffffff8214156145e3576145e261464d565b5b600182019050919050565b60006145f982614600565b9050919050565b600061460b8261471a565b9050919050565b6000819050919050565b6000614627826144ae565b9150614632836144ae565b9250826146425761464161467c565b5b828206905092915050565b7f4e487b7100000000000000000000000000000000000000000000000000000000600052601160045260246000fd5b7f4e487b7100000000000000000000000000000000000000000000000000000000600052601260045260246000fd5b7f4e487b7100000000000000000000000000000000000000000000000000000000600052602260045260246000fd5b7f4e487b7100000000000000000000000000000000000000000000000000000000600052604160045260246000fd5b6000601f19601f8301169050919050565b60008160601b9050919050565b7f6e6f742070616964000000000000000000000000000000000000000000000000600082015250565b7f455243373231456e756d657261626c653a206f776e657220696e646578206f7560008201527f74206f6620626f756e6473000000000000000000000000000000000000000000602082015250565b7f4552433732313a207472616e7366657220746f206e6f6e20455243373231526560008201527f63656976657220696d706c656d656e7465720000000000000000000000000000602082015250565b7f4f776e61626c653a206e6577206f776e657220697320746865207a65726f206160008201527f6464726573730000000000000000000000000000000000000000000000000000602082015250565b7f4552433732313a207472616e736665722066726f6d20696e636f72726563742060008201527f6f776e6572000000000000000000000000000000000000000000000000000000602082015250565b7f4552433732313a20746f6b656e20616c7265616479206d696e74656400000000600082015250565b7f63616c6c6572206973206e6f74207468652063726561746f7200000000000000600082015250565b7f4552433732313a207472616e7366657220746f20746865207a65726f2061646460008201527f7265737300000000000000000000000000000000000000000000000000000000602082015250565b7f4552433732313a20617070726f766520746f2063616c6c657200000000000000600082015250565b7f4552433732313a206f70657261746f7220717565727920666f72206e6f6e657860008201527f697374656e7420746f6b656e0000000000000000000000000000000000000000602082015250565b7f4552433732313a20617070726f76652063616c6c6572206973206e6f74206f7760008201527f6e6572206e6f7220617070726f76656420666f7220616c6c0000000000000000602082015250565b7f6e6f74206120526166666c657220696d706c656d656e74657200000000000000600082015250565b7f4552433732313a2062616c616e636520717565727920666f7220746865207a6560008201527f726f206164647265737300000000000000000000000000000000000000000000602082015250565b7f4552433732313a206f776e657220717565727920666f72206e6f6e657869737460008201527f656e7420746f6b656e0000000000000000000000000000000000000000000000602082015250565b7f6d617820737570706c7920726561636865640000000000000000000000000000600082015250565b7f4552433732313a206d696e7420746f20746865207a65726f2061646472657373600082015250565b7f4552433732313a20617070726f76656420717565727920666f72206e6f6e657860008201527f697374656e7420746f6b656e0000000000000000000000000000000000000000602082015250565b7f2e6a736f6e000000000000000000000000000000000000000000000000000000600082015250565b7f4f776e61626c653a2063616c6c6572206973206e6f7420746865206f776e6572600082015250565b7f6d696e74696e672069732074696d656c6f636b65640000000000000000000000600082015250565b7f4552433732313a20617070726f76616c20746f2063757272656e74206f776e6560008201527f7200000000000000000000000000000000000000000000000000000000000000602082015250565b7f4552433732313a207472616e736665722063616c6c6572206973206e6f74206f60008201527f776e6572206e6f7220617070726f766564000000000000000000000000000000602082015250565b7f455243373231456e756d657261626c653a20676c6f62616c20696e646578206f60008201527f7574206f6620626f756e64730000000000000000000000000000000000000000602082015250565b7f455243323938313a20726f79616c7479206665652077696c6c2065786365656460008201527f2073616c65507269636500000000000000000000000000000000000000000000602082015250565b7f455243323938313a20696e76616c696420726563656976657200000000000000600082015250565b614d458161443a565b8114614d5057600080fd5b50565b614d5c8161444c565b8114614d6757600080fd5b50565b614d7381614462565b8114614d7e57600080fd5b50565b614d8a816144ae565b8114614d9557600080fd5b5056fea2646970667358221220eeeff4b3ccf9c897077383561008f4be9280d94c9c5c9513714eb2a4d78fc33164736f6c63430008020033",
  "linkReferences": {},
  "deployedLinkReferences": {}
}