{
  "_format": "hh-sol-artifact-1",
  "contractName": "Raffler",
  "sourceName": "contracts/Raffler.sol",
  "abi": [
    {
      "inputs": [
        {
          "internalType": "address",
          "name": "_rafflable",
          "type": "address"
        },
        {
          "internalType": "address",
          "name": "token",
          "type": "address"
        },
        {
          "internalType": "uint256",
          "name": "prize",
          "type": "uint256"
        }
      ],
      "stateMutability": "nonpayable",
      "type": "constructor"
    },
    {
      "anonymous": false,
      "inputs": [
        {
          "indexed": true,
          "internalType": "address",
          "name": "previousOwner",
          "type": "address"
        },
        {
          "indexed": true,
          "internalType": "address",
          "name": "newOwner",
          "type": "address"
        }
      ],
      "name": "OwnershipTransferred",
      "type": "event"
    },
    {
      "anonymous": false,
      "inputs": [
        {
          "indexed": false,
          "internalType": "address",
          "name": "winner",
          "type": "address"
        },
        {
          "indexed": false,
          "internalType": "address",
          "name": "token",
          "type": "address"
        },
        {
          "indexed": false,
          "internalType": "uint256",
          "name": "amount",
          "type": "uint256"
        }
      ],
      "name": "PrizeTransfer",
      "type": "event"
    },
    {
      "anonymous": false,
      "inputs": [
        {
          "indexed": false,
          "internalType": "uint256",
          "name": "tokenId",
          "type": "uint256"
        },
        {
          "indexed": false,
          "internalType": "address",
          "name": "token",
          "type": "address"
        },
        {
          "indexed": false,
          "internalType": "uint256",
          "name": "amount",
          "type": "uint256"
        }
      ],
      "name": "PrizeWon",
      "type": "event"
    },
    {
      "anonymous": false,
      "inputs": [
        {
          "indexed": false,
          "internalType": "uint256",
          "name": "tokenId",
          "type": "uint256"
        },
        {
          "indexed": false,
          "internalType": "uint256",
          "name": "ticketId",
          "type": "uint256"
        }
      ],
      "name": "TicketAdded",
      "type": "event"
    },
    {
      "anonymous": false,
      "inputs": [
        {
          "indexed": false,
          "internalType": "address",
          "name": "token",
          "type": "address"
        },
        {
          "indexed": false,
          "internalType": "uint256",
          "name": "prize",
          "type": "uint256"
        }
      ],
      "name": "TokenPrize",
      "type": "event"
    },
    {
      "inputs": [
        {
          "internalType": "uint256",
          "name": "tokenId",
          "type": "uint256"
        },
        {
          "internalType": "uint256",
          "name": "ticketId",
          "type": "uint256"
        }
      ],
      "name": "add",
      "outputs": [
        {
          "internalType": "bool",
          "name": "",
          "type": "bool"
        }
      ],
      "stateMutability": "nonpayable",
      "type": "function"
    },
    {
      "inputs": [
        {
          "internalType": "address",
          "name": "token",
          "type": "address"
        },
        {
          "internalType": "uint256",
          "name": "prize",
          "type": "uint256"
        }
      ],
      "name": "addTokenPrize",
      "outputs": [],
      "stateMutability": "nonpayable",
      "type": "function"
    },
    {
      "inputs": [],
      "name": "claimable",
      "outputs": [
        {
          "internalType": "uint256[]",
          "name": "",
          "type": "uint256[]"
        }
      ],
      "stateMutability": "view",
      "type": "function"
    },
    {
      "inputs": [
        {
          "internalType": "bytes32",
          "name": "seed",
          "type": "bytes32"
        }
      ],
      "name": "draw",
      "outputs": [
        {
          "internalType": "bool",
          "name": "",
          "type": "bool"
        }
      ],
      "stateMutability": "nonpayable",
      "type": "function"
    },
    {
      "inputs": [],
      "name": "hat",
      "outputs": [
        {
          "internalType": "uint256[]",
          "name": "",
          "type": "uint256[]"
        }
      ],
      "stateMutability": "view",
      "type": "function"
    },
    {
      "inputs": [],
      "name": "hatSize",
      "outputs": [
        {
          "internalType": "uint256",
          "name": "",
          "type": "uint256"
        }
      ],
      "stateMutability": "view",
      "type": "function"
    },
    {
      "inputs": [],
      "name": "owner",
      "outputs": [
        {
          "internalType": "address",
          "name": "",
          "type": "address"
        }
      ],
      "stateMutability": "view",
      "type": "function"
    },
    {
      "inputs": [
        {
          "internalType": "address",
          "name": "token",
          "type": "address"
        }
      ],
      "name": "prizeOf",
      "outputs": [
        {
          "internalType": "uint256",
          "name": "",
          "type": "uint256"
        }
      ],
      "stateMutability": "view",
      "type": "function"
    },
    {
      "inputs": [],
      "name": "rafflable",
      "outputs": [
        {
          "internalType": "contract IERC721",
          "name": "",
          "type": "address"
        }
      ],
      "stateMutability": "view",
      "type": "function"
    },
    {
      "inputs": [
        {
          "internalType": "address",
          "name": "",
          "type": "address"
        }
      ],
      "name": "rafflePrize",
      "outputs": [
        {
          "internalType": "uint256",
          "name": "",
          "type": "uint256"
        }
      ],
      "stateMutability": "view",
      "type": "function"
    },
    {
      "inputs": [],
      "name": "renounceOwnership",
      "outputs": [],
      "stateMutability": "nonpayable",
      "type": "function"
    },
    {
      "inputs": [
        {
          "internalType": "bytes4",
          "name": "interfaceId",
          "type": "bytes4"
        }
      ],
      "name": "supportsInterface",
      "outputs": [
        {
          "internalType": "bool",
          "name": "",
          "type": "bool"
        }
      ],
      "stateMutability": "view",
      "type": "function"
    },
    {
      "inputs": [],
      "name": "tokens",
      "outputs": [
        {
          "internalType": "address[]",
          "name": "",
          "type": "address[]"
        }
      ],
      "stateMutability": "view",
      "type": "function"
    },
    {
      "inputs": [
        {
          "internalType": "address",
          "name": "",
          "type": "address"
        }
      ],
      "name": "totalWithdrawableBalance",
      "outputs": [
        {
          "internalType": "uint256",
          "name": "",
          "type": "uint256"
        }
      ],
      "stateMutability": "view",
      "type": "function"
    },
    {
      "inputs": [
        {
          "internalType": "address",
          "name": "newOwner",
          "type": "address"
        }
      ],
      "name": "transferOwnership",
      "outputs": [],
      "stateMutability": "nonpayable",
      "type": "function"
    },
    {
      "inputs": [
        {
          "internalType": "uint256",
          "name": "tokenId",
          "type": "uint256"
        }
      ],
      "name": "withdraw",
      "outputs": [],
      "stateMutability": "nonpayable",
      "type": "function"
    },
    {
      "inputs": [
        {
          "internalType": "uint256",
          "name": "",
          "type": "uint256"
        },
        {
          "internalType": "address",
          "name": "",
          "type": "address"
        }
      ],
      "name": "withdrawableBalance",
      "outputs": [
        {
          "internalType": "uint256",
          "name": "",
          "type": "uint256"
        }
      ],
      "stateMutability": "view",
      "type": "function"
    }
  ],
  "bytecode": "0x60806040523480156200001157600080fd5b50604051620016503803806200165083398101604081905262000034916200025a565b6200003f3362000081565b600280546001600160a01b0319166001600160a01b0385161790556200006c6385d15e5d60e01b620000d3565b62000078828262000157565b5050506200029a565b600180546001600160a01b038381166001600160a01b0319831681179093556040519116919082907f8be0079c531659141344cd1fd0a4f28419497f9722a3daafe3b4186f6b6457e090600090a35050565b6001600160e01b03198082161415620001325760405162461bcd60e51b815260206004820152601c60248201527f4552433136353a20696e76616c696420696e7465726661636520696400000000604482015260640160405180910390fd5b6001600160e01b0319166000908152602081905260409020805460ff19166001179055565b62000172826003620001cb60201b62000cf01790919060201c565b506001600160a01b0382166000818152600b6020908152604091829020849055815192835282018390527f9ecf847944cbf529e9369a6dd406da52e7bc4c37c3de326072fcc840dbd0213a910160405180910390a15050565b6000620001e2836001600160a01b038416620001eb565b90505b92915050565b60008181526001830160205260408120546200023457508154600181810184556000848152602080822090930184905584548482528286019093526040902091909155620001e5565b506000620001e5565b80516001600160a01b03811681146200025557600080fd5b919050565b6000806000606084860312156200026f578283fd5b6200027a846200023d565b92506200028a602085016200023d565b9150604084015190509250925092565b6113a680620002aa6000396000f3fe608060405234801561001057600080fd5b506004361061010b5760003560e01c80637578974d116100a25780639d63848a116100715780639d63848a14610247578063af38d7571461025c578063f10eb67a14610271578063f2fde38b14610284578063fe95a5ce146102975761010b565b80637578974d146101dc578063771602f7146101fc5780638da5cb5b1461020f57806390542801146102345761010b565b8063584cc547116100de578063584cc547146101835780635f0d3448146101ae578063629374ab146101c1578063715018a6146101d45761010b565b806301ffc9a71461011057806304eb650e146101385780631179d64b146101665780632e1a7d4d1461016e575b600080fd5b61012361011e36600461118c565b61029f565b60405190151581526020015b60405180910390f35b6101586101463660046110f1565b600b6020526000908152604090205481565b60405190815260200161012f565b6101586102b0565b61018161017c366004611174565b6102c1565b005b6101586101913660046111cc565b600d60209081526000928352604080842090915290825290205481565b6101586101bc3660046110f1565b6105b6565b6101236101cf366004611174565b610695565b610181610a0c565b6101586101ea3660046110f1565b600c6020526000908152604090205481565b61012361020a3660046111fb565b610a42565b6001546001600160a01b03165b6040516001600160a01b03909116815260200161012f565b610181610242366004611129565b610b0b565b61024f610c31565b60405161012f919061121c565b610264610c3d565b60405161012f9190611269565b60025461021c906001600160a01b031681565b6101816102923660046110f1565b610c49565b610264610ce4565b60006102aa82610d05565b92915050565b60006102bc6005610d41565b905090565b6002546040516331a9108f60e11b81526004810183905282916001600160a01b031690636352211e9060240160206040518083038186803b15801561030557600080fd5b505afa158015610319573d6000803e3d6000fd5b505050506040513d601f19601f8201168201806040525081019061033d919061110d565b6001600160a01b0316336001600160a01b0316146103975760405162461bcd60e51b81526020600482015260126024820152713737ba1037bbb732b91037b3103a37b5b2b760711b60448201526064015b60405180910390fd5b6103a2600982610d4b565b6103e65760405162461bcd60e51b81526020600482015260156024820152743a37b5b2b71034b9903737ba1030903bb4b73732b960591b604482015260640161038e565b60005b6103f36003610d41565b8160ff1610156105a557600061040d600360ff8416610d63565b6000858152600d602090815260408083206001600160a01b038516845290915290205490915080156105905760405163a9059cbb60e01b8152336004820152602481018290526001600160a01b0383169063a9059cbb90604401602060405180830381600087803b15801561048157600080fd5b505af1158015610495573d6000803e3d6000fd5b505050506040513d601f19601f820116820180604052508101906104b99190611154565b6105055760405162461bcd60e51b815260206004820152601d60248201527f6572726f72207768696c65207472616e73666572696e67207072697a65000000604482015260640161038e565b6000858152600d602090815260408083206001600160a01b03861684528252808320839055600c909152812080548392906105419084906112ee565b9091555050604080513381526001600160a01b03841660208201529081018290527f700a9113c5657f2572142e1a393bbf22583380532704785c39b48ae38e4bd9009060600160405180910390a15b5050808061059d90611305565b9150506103e9565b506105b1600983610d6f565b505050565b6040516370a0823160e01b815230600482015260009081906001600160a01b038416906370a082319060240160206040518083038186803b1580156105fa57600080fd5b505afa15801561060e573d6000803e3d6000fd5b505050506040513d601f19601f8201168201806040525081019061063291906111b4565b6001600160a01b0384166000908152600c602052604090205490915081101561066b57634e487b7160e01b600052600160045260246000fd5b6001600160a01b0383166000908152600c602052604090205461068e90826112ee565b9392505050565b6002546000906001600160a01b031633146106f25760405162461bcd60e51b815260206004820152601d60248201527f6f6e6c79206120726166666c61626c6520616c6c6f7765642063616c6c000000604482015260640161038e565b6106fa6110d2565b6000805b6107086003610d41565b8160ff1610156107dc576000610722600360ff8416610d63565b9050600061072f826105b6565b6001600160a01b0383166000908152600b6020526040902054909150811061079e576001600160a01b0382166000908152600b6020526040902054600194508560ff8516600a811061079157634e487b7160e01b600052603260045260246000fd5b6020020152506107ca9050565b80858460ff16600a81106107c257634e487b7160e01b600052603260045260246000fd5b602002015250505b806107d481611305565b9150506106fe565b50801561068e5760006107ef6005610d41565b604080514360208201524291810191909152606081018790526080016040516020818303038152906040528051906020012060001c61082e9190611325565b9050600061083d600583610d63565b905060005b61084c6003610d41565b8160ff1610156109ee576000858260ff16600a811061087b57634e487b7160e01b600052603260045260246000fd5b602002015111156109dc576000610896600360ff8416610d63565b9050858260ff16600a81106108bb57634e487b7160e01b600052603260045260246000fd5b6020020151600c6000836001600160a01b03166001600160a01b0316815260200190815260200160002060008282546108f491906112d6565b9091555086905060ff8316600a811061091d57634e487b7160e01b600052603260045260246000fd5b602090810291909101516000858152600d835260408082206001600160a01b03861683529093529182208054919290916109589084906112d6565b909155507fb3c0323a3b9df1b8e6fac076cb538d20464354ed830d34e20d29ff82381cc415905083828860ff8616600a81106109a457634e487b7160e01b600052603260045260246000fd5b60200201516040516109d2939291909283526001600160a01b03919091166020830152604082015260600190565b60405180910390a1505b806109e681611305565b915050610842565b506109fa600982610d7b565b50610a03610d87565b50509392505050565b6001546001600160a01b03163314610a365760405162461bcd60e51b815260040161038e906112a1565b610a406000610e0f565b565b6002546000906001600160a01b03163314610a9f5760405162461bcd60e51b815260206004820152601d60248201527f6f6e6c79206120726166666c61626c6520616c6c6f7765642063616c6c000000604482015260640161038e565b610aaa600784610d7b565b8015610abc5750610abc600583610d7b565b15610b025760408051848152602081018490527f799bdfa446bc7e6936663094ee6db5db74b6fcdfc4dcf6cb7c0d56c352e99066910160405180910390a15060016102aa565b50600092915050565b6001546001600160a01b03163314610b355760405162461bcd60e51b815260040161038e906112a1565b600a610b416003610d41565b10610b875760405162461bcd60e51b81526020600482015260166024820152751b585e1a5b5d5b481d1bdad95b9cc81c995858da195960521b604482015260640161038e565b6001600160a01b0382163b610bd35760405162461bcd60e51b81526020600482015260126024820152711b5d5cdd08189948184818dbdb9d1c9858dd60721b604482015260640161038e565b60008111610c235760405162461bcd60e51b815260206004820152601f60248201527f7072697a65206d7573742062652067726561746572207468616e207a65726f00604482015260640161038e565b610c2d8282610e61565b5050565b60606102bc6003610ec5565b60606102bc6009610ec5565b6001546001600160a01b03163314610c735760405162461bcd60e51b815260040161038e906112a1565b6001600160a01b038116610cd85760405162461bcd60e51b815260206004820152602660248201527f4f776e61626c653a206e6577206f776e657220697320746865207a65726f206160448201526564647265737360d01b606482015260840161038e565b610ce181610e0f565b50565b60606102bc6005610ec5565b600061068e836001600160a01b038416610ed2565b60006301ffc9a760e01b6001600160e01b0319831614806102aa5750506001600160e01b03191660009081526020819052604090205460ff1690565b60006102aa825490565b6000818152600183016020526040812054151561068e565b600061068e8383610f21565b600061068e8383610f59565b600061068e8383610ed2565b6000610d936005610d41565b1115610dcb57610dc5610dbd6001610dab6005610d41565b610db591906112ee565b600590610d63565b600590610d6f565b50610d87565b6000610dd76007610d41565b1115610a4057610e09610e016001610def6007610d41565b610df991906112ee565b600790610d63565b600790610d6f565b50610dcb565b600180546001600160a01b038381166001600160a01b0319831681179093556040519116919082907f8be0079c531659141344cd1fd0a4f28419497f9722a3daafe3b4186f6b6457e090600090a35050565b610e6c600383610cf0565b506001600160a01b0382166000818152600b6020908152604091829020849055815192835282018390527f9ecf847944cbf529e9369a6dd406da52e7bc4c37c3de326072fcc840dbd0213a910160405180910390a15050565b6060600061068e83611076565b6000818152600183016020526040812054610f19575081546001818101845560008481526020808220909301849055845484825282860190935260409020919091556102aa565b5060006102aa565b6000826000018281548110610f4657634e487b7160e01b600052603260045260246000fd5b9060005260206000200154905092915050565b6000818152600183016020526040812054801561106c576000610f7d6001836112ee565b8554909150600090610f91906001906112ee565b9050818114611012576000866000018281548110610fbf57634e487b7160e01b600052603260045260246000fd5b9060005260206000200154905080876000018481548110610ff057634e487b7160e01b600052603260045260246000fd5b6000918252602080832090910192909255918252600188019052604090208390555b855486908061103157634e487b7160e01b600052603160045260246000fd5b6001900381819060005260206000200160009055905585600101600086815260200190815260200160002060009055600193505050506102aa565b60009150506102aa565b6060816000018054806020026020016040519081016040528092919081815260200182805480156110c657602002820191906000526020600020905b8154815260200190600101908083116110b2575b50505050509050919050565b604051806101400160405280600a906020820280368337509192915050565b600060208284031215611102578081fd5b813561068e8161135b565b60006020828403121561111e578081fd5b815161068e8161135b565b6000806040838503121561113b578081fd5b82356111468161135b565b946020939093013593505050565b600060208284031215611165578081fd5b8151801515811461068e578182fd5b600060208284031215611185578081fd5b5035919050565b60006020828403121561119d578081fd5b81356001600160e01b03198116811461068e578182fd5b6000602082840312156111c5578081fd5b5051919050565b600080604083850312156111de578182fd5b8235915060208301356111f08161135b565b809150509250929050565b6000806040838503121561120d578182fd5b50508035926020909101359150565b6020808252825182820181905260009190848201906040850190845b8181101561125d5783516001600160a01b031683529284019291840191600101611238565b50909695505050505050565b6020808252825182820181905260009190848201906040850190845b8181101561125d57835183529284019291840191600101611285565b6020808252818101527f4f776e61626c653a2063616c6c6572206973206e6f7420746865206f776e6572604082015260600190565b600082198211156112e9576112e9611345565b500190565b60008282101561130057611300611345565b500390565b600060ff821660ff81141561131c5761131c611345565b60010192915050565b60008261134057634e487b7160e01b81526012600452602481fd5b500690565b634e487b7160e01b600052601160045260246000fd5b6001600160a01b0381168114610ce157600080fdfea2646970667358221220761a96aa817719a35baca073838dd4be63db1542fbbca43e22de49d263d2f39a64736f6c63430008020033",
  "linkReferences": {},
  "deployedLinkReferences": {}
}