{
  "_format": "hh-sol-artifact-1",
  "contractName": "RaffleFactory",
  "sourceName": "contracts/RaffleFactory.sol",
  "abi": [
    {
      "inputs": [
        {
          "internalType": "address[]",
          "name": "tokens",
          "type": "address[]"
        }
      ],
      "stateMutability": "nonpayable",
      "type": "constructor"
    },
    {
      "anonymous": false,
      "inputs": [
        {
          "indexed": true,
          "internalType": "address",
          "name": "previousOwner",
          "type": "address"
        },
        {
          "indexed": true,
          "internalType": "address",
          "name": "newOwner",
          "type": "address"
        }
      ],
      "name": "OwnershipTransferred",
      "type": "event"
    },
    {
      "anonymous": false,
      "inputs": [
        {
          "indexed": false,
          "internalType": "address",
          "name": "creator",
          "type": "address"
        },
        {
          "indexed": false,
          "internalType": "address",
          "name": "token",
          "type": "address"
        },
        {
          "indexed": false,
          "internalType": "uint256",
          "name": "cost",
          "type": "uint256"
        },
        {
          "indexed": false,
          "internalType": "uint256",
          "name": "prize",
          "type": "uint256"
        },
        {
          "indexed": false,
          "internalType": "string",
          "name": "title",
          "type": "string"
        },
        {
          "indexed": false,
          "internalType": "string",
          "name": "configUri",
          "type": "string"
        }
      ],
      "name": "RafflePublished",
      "type": "event"
    },
    {
      "inputs": [],
      "name": "enabled",
      "outputs": [
        {
          "internalType": "bool",
          "name": "",
          "type": "bool"
        }
      ],
      "stateMutability": "view",
      "type": "function"
    },
    {
      "inputs": [],
      "name": "getTokens",
      "outputs": [
        {
          "internalType": "address[]",
          "name": "",
          "type": "address[]"
        }
      ],
      "stateMutability": "view",
      "type": "function"
    },
    {
      "inputs": [],
      "name": "owner",
      "outputs": [
        {
          "internalType": "address",
          "name": "",
          "type": "address"
        }
      ],
      "stateMutability": "view",
      "type": "function"
    },
    {
      "inputs": [
        {
          "internalType": "string",
          "name": "title",
          "type": "string"
        },
        {
          "internalType": "string",
          "name": "configUri",
          "type": "string"
        },
        {
          "internalType": "string",
          "name": "baseUri",
          "type": "string"
        },
        {
          "internalType": "string",
          "name": "secretUri",
          "type": "string"
        },
        {
          "internalType": "uint256",
          "name": "cap",
          "type": "uint256"
        },
        {
          "internalType": "uint256",
          "name": "timelock",
          "type": "uint256"
        },
        {
          "internalType": "address",
          "name": "token",
          "type": "address"
        },
        {
          "internalType": "uint256",
          "name": "cost",
          "type": "uint256"
        },
        {
          "internalType": "uint256",
          "name": "prize",
          "type": "uint256"
        }
      ],
      "name": "publish",
      "outputs": [],
      "stateMutability": "nonpayable",
      "type": "function"
    },
    {
      "inputs": [],
      "name": "rafflable",
      "outputs": [
        {
          "internalType": "contract IRafflableFactory",
          "name": "",
          "type": "address"
        }
      ],
      "stateMutability": "view",
      "type": "function"
    },
    {
      "inputs": [
        {
          "internalType": "uint256",
          "name": "",
          "type": "uint256"
        }
      ],
      "name": "rafflables",
      "outputs": [
        {
          "internalType": "address",
          "name": "",
          "type": "address"
        }
      ],
      "stateMutability": "view",
      "type": "function"
    },
    {
      "inputs": [],
      "name": "raffler",
      "outputs": [
        {
          "internalType": "contract IRafflerFactory",
          "name": "",
          "type": "address"
        }
      ],
      "stateMutability": "view",
      "type": "function"
    },
    {
      "inputs": [],
      "name": "renounceOwnership",
      "outputs": [],
      "stateMutability": "nonpayable",
      "type": "function"
    },
    {
      "inputs": [
        {
          "internalType": "address",
          "name": "to",
          "type": "address"
        }
      ],
      "name": "setRafflableFactory",
      "outputs": [],
      "stateMutability": "nonpayable",
      "type": "function"
    },
    {
      "inputs": [
        {
          "internalType": "address",
          "name": "to",
          "type": "address"
        }
      ],
      "name": "setRafflerFactory",
      "outputs": [],
      "stateMutability": "nonpayable",
      "type": "function"
    },
    {
      "inputs": [],
      "name": "toggleOnOff",
      "outputs": [],
      "stateMutability": "nonpayable",
      "type": "function"
    },
    {
      "inputs": [
        {
          "internalType": "address",
          "name": "newOwner",
          "type": "address"
        }
      ],
      "name": "transferOwnership",
      "outputs": [],
      "stateMutability": "nonpayable",
      "type": "function"
    }
  ],
  "bytecode": "0x60806040526003805460ff191660011790553480156200001e57600080fd5b5060405162000e8f38038062000e8f83398101604081905262000041916200019f565b6200004c33620000c0565b60005b81518160ff161015620000b857620000a2828260ff16815181106200008457634e487b7160e01b600052603260045260246000fd5b602002602001015160016200011060201b620006a11790919060201c565b5080620000af8162000272565b9150506200004f565b5050620002b5565b600080546001600160a01b038381166001600160a01b0319831681178455604051919092169283917f8be0079c531659141344cd1fd0a4f28419497f9722a3daafe3b4186f6b6457e09190a35050565b600062000127836001600160a01b03841662000130565b90505b92915050565b600081815260018301602052604081205462000179575081546001818101845560008481526020808220909301849055845484825282860190935260409020919091556200012a565b5060006200012a565b80516001600160a01b03811681146200019a57600080fd5b919050565b60006020808385031215620001b2578182fd5b82516001600160401b0380821115620001c9578384fd5b818501915085601f830112620001dd578384fd5b815181811115620001f257620001f26200029f565b838102604051601f19603f830116810181811085821117156200021957620002196200029f565b604052828152858101935084860182860187018a101562000238578788fd5b8795505b838610156200026557620002508162000182565b8552600195909501949386019386016200023c565b5098975050505050505050565b600060ff821660ff8114156200029657634e487b7160e01b82526011600452602482fd5b60010192915050565b634e487b7160e01b600052604160045260246000fd5b610bca80620002c56000396000f3fe608060405234801561001057600080fd5b50600436106100b45760003560e01c806395a296671161007157806395a296671461013c578063aa6ca8081461014f578063d714db6c14610164578063dd973a1314610177578063f10eb67a1461018a578063f2fde38b1461019d576100b4565b80631e9a81e8146100b9578063238dafe0146100e95780635c2e523514610106578063715018a6146101105780638da5cb5b14610118578063918a034214610129575b600080fd5b6100cc6100c73660046109a3565b6101b0565b6040516001600160a01b0390911681526020015b60405180910390f35b6003546100f69060ff1681565b60405190151581526020016100e0565b61010e6101da565b005b61010e610221565b6000546001600160a01b03166100cc565b61010e6101373660046108c3565b610257565b61010e61014a366004610884565b61055d565b6101576105a9565b6040516100e09190610a5f565b6006546100cc906001600160a01b031681565b61010e610185366004610884565b6105ba565b6005546100cc906001600160a01b031681565b61010e6101ab366004610884565b610606565b600481815481106101c057600080fd5b6000918252602090912001546001600160a01b0316905081565b6000546001600160a01b0316331461020d5760405162461bcd60e51b815260040161020490610b34565b60405180910390fd5b6003805460ff19811660ff90911615179055565b6000546001600160a01b0316331461024b5760405162461bcd60e51b815260040161020490610b34565b61025560006106bf565b565b60035460ff166102a25760405162461bcd60e51b81526020600482015260166024820152751c1d589b1a5cda1a5b99c81a5cc8191a5cd8589b195960521b6044820152606401610204565b6102ad60018461070f565b6102ed5760405162461bcd60e51b81526020600482015260116024820152701d1bdad95b881b9bdd08185b1b1bddd959607a1b6044820152606401610204565b8181101561033d5760405162461bcd60e51b815260206004820152601f60248201527f7072697a652063616e6e6f74206265206c6f776572207468616e20636f7374006044820152606401610204565b6005546040516363f2b41360e11b81526000916001600160a01b03169063c7e568269061037e908d908d908d908d908d908d9033908e908e90600401610aac565b602060405180830381600087803b15801561039857600080fd5b505af11580156103ac573d6000803e3d6000fd5b505050506040513d601f19601f820116820180604052508101906103d091906108a7565b6006546040516001621a8da160e01b031981526001600160a01b0380841660048301528781166024830152604482018690529293506000929091169063ffe5725f90606401602060405180830381600087803b15801561042f57600080fd5b505af1158015610443573d6000803e3d6000fd5b505050506040513d601f19601f8201168201806040525081019061046791906108a7565b60405163375df52b60e01b81526001600160a01b0380831660048301529192509083169063375df52b90602401600060405180830381600087803b1580156104ae57600080fd5b505af11580156104c2573d6000803e3d6000fd5b505050506004829080600181540180825580915050600190039060005260206000200160009091909190916101000a8154816001600160a01b0302191690836001600160a01b031602179055507fdb3f0f7bd30e4fc13096901db42b68dfa48f15e2174bb2de5bf7dd10c75d47d1338686868f8f60405161054896959493929190610a06565b60405180910390a15050505050505050505050565b6000546001600160a01b031633146105875760405162461bcd60e51b815260040161020490610b34565b600680546001600160a01b0319166001600160a01b0392909216919091179055565b60606105b56001610731565b905090565b6000546001600160a01b031633146105e45760405162461bcd60e51b815260040161020490610b34565b600580546001600160a01b0319166001600160a01b0392909216919091179055565b6000546001600160a01b031633146106305760405162461bcd60e51b815260040161020490610b34565b6001600160a01b0381166106955760405162461bcd60e51b815260206004820152602660248201527f4f776e61626c653a206e6577206f776e657220697320746865207a65726f206160448201526564647265737360d01b6064820152608401610204565b61069e816106bf565b50565b60006106b6836001600160a01b038416610747565b90505b92915050565b600080546001600160a01b038381166001600160a01b0319831681178455604051919092169283917f8be0079c531659141344cd1fd0a4f28419497f9722a3daafe3b4186f6b6457e09190a35050565b6001600160a01b038116600090815260018301602052604081205415156106b6565b6060600061073e83610796565b9150505b919050565b600081815260018301602052604081205461078e575081546001818101845560008481526020808220909301849055845484825282860190935260409020919091556106b9565b5060006106b9565b6060816000018054806020026020016040519081016040528092919081815260200182805480156107e657602002820191906000526020600020905b8154815260200190600101908083116107d2575b50505050509050919050565b803561074281610b7f565b600082601f83011261080d578081fd5b813567ffffffffffffffff8082111561082857610828610b69565b604051601f8301601f19908116603f0116810190828211818310171561085057610850610b69565b81604052838152866020858801011115610868578485fd5b8360208701602083013792830160200193909352509392505050565b600060208284031215610895578081fd5b81356108a081610b7f565b9392505050565b6000602082840312156108b8578081fd5b81516108a081610b7f565b60008060008060008060008060006101208a8c0312156108e1578485fd5b893567ffffffffffffffff808211156108f8578687fd5b6109048d838e016107fd565b9a5060208c0135915080821115610919578687fd5b6109258d838e016107fd565b995060408c013591508082111561093a578687fd5b6109468d838e016107fd565b985060608c013591508082111561095b578687fd5b506109688c828d016107fd565b96505060808a0135945060a08a0135935061098560c08b016107f2565b925060e08a013591506101008a013590509295985092959850929598565b6000602082840312156109b4578081fd5b5035919050565b60008151808452815b818110156109e0576020818501810151868301820152016109c4565b818111156109f15782602083870101525b50601f01601f19169290920160200192915050565b6001600160a01b03878116825286166020820152604081018590526060810184905260c060808201819052600090610a40908301856109bb565b82810360a0840152610a5281856109bb565b9998505050505050505050565b6020808252825182820181905260009190848201906040850190845b81811015610aa05783516001600160a01b031683529284019291840191600101610a7b565b50909695505050505050565b6000610120808352610ac08184018d6109bb565b90508281036020840152610ad4818c6109bb565b90508281036040840152610ae8818b6109bb565b90508281036060840152610afc818a6109bb565b6080840198909852505060a08101949094526001600160a01b0392831660c0850152911660e083015261010090910152949350505050565b6020808252818101527f4f776e61626c653a2063616c6c6572206973206e6f7420746865206f776e6572604082015260600190565b634e487b7160e01b600052604160045260246000fd5b6001600160a01b038116811461069e57600080fdfea2646970667358221220a0b0610c7621c397a74ffb302c50906eabd41fa0fedda7616c63c3915d84c24764736f6c63430008020033",
  "linkReferences": {},
  "deployedLinkReferences": {}
}