{
  "_format": "hh-sol-artifact-1",
  "contractName": "Rafflable",
  "sourceName": "contracts/Rafflable.sol",
  "abi": [
    {
      "inputs": [
        {
          "internalType": "string",
          "name": "_name",
          "type": "string"
        },
        {
          "internalType": "string",
          "name": "_configUri",
          "type": "string"
        },
        {
          "internalType": "string",
          "name": "baseUri",
          "type": "string"
        },
        {
          "internalType": "string",
          "name": "secretUri",
          "type": "string"
        },
        {
          "internalType": "uint256",
          "name": "_cap",
          "type": "uint256"
        },
        {
          "internalType": "uint256",
          "name": "_timelock",
          "type": "uint256"
        },
        {
          "internalType": "address",
          "name": "_creator",
          "type": "address"
        },
        {
          "internalType": "address",
          "name": "_token",
          "type": "address"
        },
        {
          "internalType": "uint256",
          "name": "_cost",
          "type": "uint256"
        }
      ],
      "stateMutability": "nonpayable",
      "type": "constructor"
    },
    {
      "anonymous": false,
      "inputs": [
        {
          "indexed": true,
          "internalType": "address",
          "name": "owner",
          "type": "address"
        },
        {
          "indexed": true,
          "internalType": "address",
          "name": "approved",
          "type": "address"
        },
        {
          "indexed": true,
          "internalType": "uint256",
          "name": "tokenId",
          "type": "uint256"
        }
      ],
      "name": "Approval",
      "type": "event"
    },
    {
      "anonymous": false,
      "inputs": [
        {
          "indexed": true,
          "internalType": "address",
          "name": "owner",
          "type": "address"
        },
        {
          "indexed": true,
          "internalType": "address",
          "name": "operator",
          "type": "address"
        },
        {
          "indexed": false,
          "internalType": "bool",
          "name": "approved",
          "type": "bool"
        }
      ],
      "name": "ApprovalForAll",
      "type": "event"
    },
    {
      "anonymous": false,
      "inputs": [
        {
          "indexed": true,
          "internalType": "address",
          "name": "previousOwner",
          "type": "address"
        },
        {
          "indexed": true,
          "internalType": "address",
          "name": "newOwner",
          "type": "address"
        }
      ],
      "name": "OwnershipTransferred",
      "type": "event"
    },
    {
      "anonymous": false,
      "inputs": [
        {
          "indexed": false,
          "internalType": "address",
          "name": "to",
          "type": "address"
        }
      ],
      "name": "RafflerUpdate",
      "type": "event"
    },
    {
      "anonymous": false,
      "inputs": [
        {
          "indexed": true,
          "internalType": "address",
          "name": "from",
          "type": "address"
        },
        {
          "indexed": true,
          "internalType": "address",
          "name": "to",
          "type": "address"
        },
        {
          "indexed": true,
          "internalType": "uint256",
          "name": "tokenId",
          "type": "uint256"
        }
      ],
      "name": "Transfer",
      "type": "event"
    },
    {
      "inputs": [
        {
          "internalType": "address",
          "name": "to",
          "type": "address"
        },
        {
          "internalType": "uint256",
          "name": "tokenId",
          "type": "uint256"
        }
      ],
      "name": "approve",
      "outputs": [],
      "stateMutability": "nonpayable",
      "type": "function"
    },
    {
      "inputs": [
        {
          "internalType": "address",
          "name": "owner",
          "type": "address"
        }
      ],
      "name": "balanceOf",
      "outputs": [
        {
          "internalType": "uint256",
          "name": "",
          "type": "uint256"
        }
      ],
      "stateMutability": "view",
      "type": "function"
    },
    {
      "inputs": [],
      "name": "cap",
      "outputs": [
        {
          "internalType": "uint256",
          "name": "",
          "type": "uint256"
        }
      ],
      "stateMutability": "view",
      "type": "function"
    },
    {
      "inputs": [],
      "name": "configUri",
      "outputs": [
        {
          "internalType": "string",
          "name": "",
          "type": "string"
        }
      ],
      "stateMutability": "view",
      "type": "function"
    },
    {
      "inputs": [],
      "name": "cost",
      "outputs": [
        {
          "internalType": "uint256",
          "name": "",
          "type": "uint256"
        }
      ],
      "stateMutability": "view",
      "type": "function"
    },
    {
      "inputs": [],
      "name": "creator",
      "outputs": [
        {
          "internalType": "address",
          "name": "",
          "type": "address"
        }
      ],
      "stateMutability": "view",
      "type": "function"
    },
    {
      "inputs": [
        {
          "internalType": "uint256",
          "name": "tokenId",
          "type": "uint256"
        }
      ],
      "name": "getApproved",
      "outputs": [
        {
          "internalType": "address",
          "name": "",
          "type": "address"
        }
      ],
      "stateMutability": "view",
      "type": "function"
    },
    {
      "inputs": [
        {
          "internalType": "address",
          "name": "owner",
          "type": "address"
        },
        {
          "internalType": "address",
          "name": "operator",
          "type": "address"
        }
      ],
      "name": "isApprovedForAll",
      "outputs": [
        {
          "internalType": "bool",
          "name": "",
          "type": "bool"
        }
      ],
      "stateMutability": "view",
      "type": "function"
    },
    {
      "inputs": [
        {
          "internalType": "uint256",
          "name": "amount",
          "type": "uint256"
        }
      ],
      "name": "mint",
      "outputs": [],
      "stateMutability": "nonpayable",
      "type": "function"
    },
    {
      "inputs": [],
      "name": "name",
      "outputs": [
        {
          "internalType": "string",
          "name": "",
          "type": "string"
        }
      ],
      "stateMutability": "view",
      "type": "function"
    },
    {
      "inputs": [],
      "name": "owner",
      "outputs": [
        {
          "internalType": "address",
          "name": "",
          "type": "address"
        }
      ],
      "stateMutability": "view",
      "type": "function"
    },
    {
      "inputs": [
        {
          "internalType": "uint256",
          "name": "tokenId",
          "type": "uint256"
        }
      ],
      "name": "ownerOf",
      "outputs": [
        {
          "internalType": "address",
          "name": "",
          "type": "address"
        }
      ],
      "stateMutability": "view",
      "type": "function"
    },
    {
      "inputs": [],
      "name": "raffler",
      "outputs": [
        {
          "internalType": "contract IRaffler",
          "name": "",
          "type": "address"
        }
      ],
      "stateMutability": "view",
      "type": "function"
    },
    {
      "inputs": [],
      "name": "renounceOwnership",
      "outputs": [],
      "stateMutability": "nonpayable",
      "type": "function"
    },
    {
      "inputs": [
        {
          "internalType": "uint256",
          "name": "_tokenId",
          "type": "uint256"
        },
        {
          "internalType": "uint256",
          "name": "_salePrice",
          "type": "uint256"
        }
      ],
      "name": "royaltyInfo",
      "outputs": [
        {
          "internalType": "address",
          "name": "",
          "type": "address"
        },
        {
          "internalType": "uint256",
          "name": "",
          "type": "uint256"
        }
      ],
      "stateMutability": "view",
      "type": "function"
    },
    {
      "inputs": [
        {
          "internalType": "address",
          "name": "from",
          "type": "address"
        },
        {
          "internalType": "address",
          "name": "to",
          "type": "address"
        },
        {
          "internalType": "uint256",
          "name": "tokenId",
          "type": "uint256"
        }
      ],
      "name": "safeTransferFrom",
      "outputs": [],
      "stateMutability": "nonpayable",
      "type": "function"
    },
    {
      "inputs": [
        {
          "internalType": "address",
          "name": "from",
          "type": "address"
        },
        {
          "internalType": "address",
          "name": "to",
          "type": "address"
        },
        {
          "internalType": "uint256",
          "name": "tokenId",
          "type": "uint256"
        },
        {
          "internalType": "bytes",
          "name": "_data",
          "type": "bytes"
        }
      ],
      "name": "safeTransferFrom",
      "outputs": [],
      "stateMutability": "nonpayable",
      "type": "function"
    },
    {
      "inputs": [
        {
          "internalType": "address",
          "name": "operator",
          "type": "address"
        },
        {
          "internalType": "bool",
          "name": "approved",
          "type": "bool"
        }
      ],
      "name": "setApprovalForAll",
      "outputs": [],
      "stateMutability": "nonpayable",
      "type": "function"
    },
    {
      "inputs": [
        {
          "internalType": "string",
          "name": "uri",
          "type": "string"
        }
      ],
      "name": "setConfigUri",
      "outputs": [],
      "stateMutability": "nonpayable",
      "type": "function"
    },
    {
      "inputs": [
        {
          "internalType": "address",
          "name": "to",
          "type": "address"
        }
      ],
      "name": "setRaffler",
      "outputs": [],
      "stateMutability": "nonpayable",
      "type": "function"
    },
    {
      "inputs": [
        {
          "internalType": "bytes4",
          "name": "interfaceId",
          "type": "bytes4"
        }
      ],
      "name": "supportsInterface",
      "outputs": [
        {
          "internalType": "bool",
          "name": "",
          "type": "bool"
        }
      ],
      "stateMutability": "view",
      "type": "function"
    },
    {
      "inputs": [],
      "name": "symbol",
      "outputs": [
        {
          "internalType": "string",
          "name": "",
          "type": "string"
        }
      ],
      "stateMutability": "view",
      "type": "function"
    },
    {
      "inputs": [],
      "name": "timelock",
      "outputs": [
        {
          "internalType": "uint256",
          "name": "",
          "type": "uint256"
        }
      ],
      "stateMutability": "view",
      "type": "function"
    },
    {
      "inputs": [],
      "name": "token",
      "outputs": [
        {
          "internalType": "contract IERC20",
          "name": "",
          "type": "address"
        }
      ],
      "stateMutability": "view",
      "type": "function"
    },
    {
      "inputs": [
        {
          "internalType": "uint256",
          "name": "index",
          "type": "uint256"
        }
      ],
      "name": "tokenByIndex",
      "outputs": [
        {
          "internalType": "uint256",
          "name": "",
          "type": "uint256"
        }
      ],
      "stateMutability": "view",
      "type": "function"
    },
    {
      "inputs": [
        {
          "internalType": "address",
          "name": "owner",
          "type": "address"
        },
        {
          "internalType": "uint256",
          "name": "index",
          "type": "uint256"
        }
      ],
      "name": "tokenOfOwnerByIndex",
      "outputs": [
        {
          "internalType": "uint256",
          "name": "",
          "type": "uint256"
        }
      ],
      "stateMutability": "view",
      "type": "function"
    },
    {
      "inputs": [
        {
          "internalType": "uint256",
          "name": "tokenId",
          "type": "uint256"
        }
      ],
      "name": "tokenURI",
      "outputs": [
        {
          "internalType": "string",
          "name": "",
          "type": "string"
        }
      ],
      "stateMutability": "view",
      "type": "function"
    },
    {
      "inputs": [],
      "name": "totalSupply",
      "outputs": [
        {
          "internalType": "uint256",
          "name": "",
          "type": "uint256"
        }
      ],
      "stateMutability": "view",
      "type": "function"
    },
    {
      "inputs": [
        {
          "internalType": "address",
          "name": "from",
          "type": "address"
        },
        {
          "internalType": "address",
          "name": "to",
          "type": "address"
        },
        {
          "internalType": "uint256",
          "name": "tokenId",
          "type": "uint256"
        }
      ],
      "name": "transferFrom",
      "outputs": [],
      "stateMutability": "nonpayable",
      "type": "function"
    },
    {
      "inputs": [
        {
          "internalType": "address",
          "name": "newOwner",
          "type": "address"
        }
      ],
      "name": "transferOwnership",
      "outputs": [],
      "stateMutability": "nonpayable",
      "type": "function"
    },
    {
      "inputs": [],
      "name": "withdraw",
      "outputs": [],
      "stateMutability": "nonpayable",
      "type": "function"
    }
  ],
  "bytecode": "0x60806040523480156200001157600080fd5b5060405162002f6938038062002f698339810160408190526200003491620002f8565b8860405180604001604052806009815260200168524146464c41424c4560b81b81525081600290805190602001906200006f92919062000182565b5080516200008590600390602084019062000182565b505050620000a26200009c6200012c60201b60201c565b62000130565b8651620000b790600f9060208a019062000182565b508551620000cd90601090602089019062000182565b508751620000e39060149060208b019062000182565b50601294909455601780546001600160a01b03199081166001600160a01b0393841617909155601694909455601592909255600d80549093169116179055506200044292505050565b3390565b600c80546001600160a01b038381166001600160a01b0319831681179093556040519116919082907f8be0079c531659141344cd1fd0a4f28419497f9722a3daafe3b4186f6b6457e090600090a35050565b8280546200019090620003ef565b90600052602060002090601f016020900481019282620001b45760008555620001ff565b82601f10620001cf57805160ff1916838001178555620001ff565b82800160010185558215620001ff579182015b82811115620001ff578251825591602001919060010190620001e2565b506200020d92915062000211565b5090565b5b808211156200020d576000815560010162000212565b80516001600160a01b03811681146200024057600080fd5b919050565b600082601f83011262000256578081fd5b81516001600160401b03808211156200027357620002736200042c565b604051601f8301601f19908116603f011681019082821181831017156200029e576200029e6200042c565b81604052838152602092508683858801011115620002ba578485fd5b8491505b83821015620002dd5785820183015181830184015290820190620002be565b83821115620002ee57848385830101525b9695505050505050565b60008060008060008060008060006101208a8c03121562000317578485fd5b89516001600160401b03808211156200032e578687fd5b6200033c8d838e0162000245565b9a5060208c015191508082111562000352578687fd5b620003608d838e0162000245565b995060408c015191508082111562000376578687fd5b620003848d838e0162000245565b985060608c01519150808211156200039a578687fd5b50620003a98c828d0162000245565b96505060808a0151945060a08a01519350620003c860c08b0162000228565b9250620003d860e08b0162000228565b91506101008a015190509295985092959850929598565b6002810460018216806200040457607f821691505b602082108114156200042657634e487b7160e01b600052602260045260246000fd5b50919050565b634e487b7160e01b600052604160045260246000fd5b612b1780620004526000396000f3fe608060405234801561001057600080fd5b50600436106101e55760003560e01c8063475edfff1161010f578063a22cb465116100a2578063d714db6c11610071578063d714db6c146103f2578063e985e9c514610405578063f2fde38b14610441578063fc0c546a14610454576101e5565b8063a22cb465146103b0578063b88d4fde146103c3578063c87b56dd146103d6578063d33219b4146103e9576101e5565b8063715018a6116100de578063715018a61461037c5780638da5cb5b1461038457806395d89b4114610395578063a0712d681461039d576101e5565b8063475edfff146103305780634f6ccce7146103435780636352211e1461035657806370a0823114610369576101e5565b806323b872dd11610187578063375df52b11610156578063375df52b146102fa57806337bba9c31461030d5780633ccfd60b1461031557806342842e0e1461031d576101e5565b806323b872dd146102995780632a55205a146102ac5780632f745c59146102de578063355274ea146102f1576101e5565b8063081812fc116101c3578063081812fc14610252578063095ea7b31461026557806313faede61461027a57806318160ddd14610291576101e5565b806301ffc9a7146101ea57806302d05d3f1461021257806306fdde031461023d575b600080fd5b6101fd6101f836600461270f565b610467565b60405190151581526020015b60405180910390f35b600d54610225906001600160a01b031681565b6040516001600160a01b039091168152602001610209565b61024561047a565b6040516102099190612898565b61022561026036600461278d565b61050d565b6102786102733660046126ca565b6105a7565b005b61028360165481565b604051908152602001610209565b600a54610283565b6102786102a73660046125e0565b6106bd565b6102bf6102ba3660046127bd565b6106ee565b604080516001600160a01b039093168352602083019190915201610209565b6102836102ec3660046126ca565b61079a565b61028360125481565b610278610308366004612594565b610833565b61024561093a565b6102786109c8565b61027861032b3660046125e0565b610b25565b61027861033e366004612747565b610b40565b61028361035136600461278d565b610b81565b61022561036436600461278d565b610c22565b610283610377366004612594565b610c99565b610278610d20565b600c546001600160a01b0316610225565b610245610d56565b6102786103ab36600461278d565b610d65565b6102786103be366004612694565b611221565b6102786103d136600461261b565b61122c565b6102456103e436600461278d565b611264565b61028360155481565b601354610225906001600160a01b031681565b6101fd6104133660046125ae565b6001600160a01b03918216600090815260076020908152604080832093909416825291909152205460ff1690565b61027861044f366004612594565b61129e565b601754610225906001600160a01b031681565b600061047282611336565b90505b919050565b60606002805461048990612a11565b80601f01602080910402602001604051908101604052809291908181526020018280546104b590612a11565b80156105025780601f106104d757610100808354040283529160200191610502565b820191906000526020600020905b8154815290600101906020018083116104e557829003601f168201915b505050505090505b90565b6000818152600460205260408120546001600160a01b031661058b5760405162461bcd60e51b815260206004820152602c60248201527f4552433732313a20617070726f76656420717565727920666f72206e6f6e657860448201526b34b9ba32b73a103a37b5b2b760a11b60648201526084015b60405180910390fd5b506000908152600660205260409020546001600160a01b031690565b60006105b282610c22565b9050806001600160a01b0316836001600160a01b031614156106205760405162461bcd60e51b815260206004820152602160248201527f4552433732313a20617070726f76616c20746f2063757272656e74206f776e656044820152603960f91b6064820152608401610582565b336001600160a01b038216148061063c575061063c8133610413565b6106ae5760405162461bcd60e51b815260206004820152603860248201527f4552433732313a20617070726f76652063616c6c6572206973206e6f74206f7760448201527f6e6572206e6f7220617070726f76656420666f7220616c6c00000000000000006064820152608401610582565b6106b88383611341565b505050565b6106c733826113af565b6106e35760405162461bcd60e51b815260040161058290612932565b6106b88383836114a6565b60008281526001602090815260408083208151808301909252546001600160a01b038116808352600160a01b9091046001600160601b03169282019290925282916107635750604080518082019091526000546001600160a01b0381168252600160a01b90046001600160601b031660208201525b602081015160009061271090610782906001600160601b0316876129af565b61078c919061299b565b915196919550909350505050565b60006107a583610c99565b82106108075760405162461bcd60e51b815260206004820152602b60248201527f455243373231456e756d657261626c653a206f776e657220696e646578206f7560448201526a74206f6620626f756e647360a81b6064820152608401610582565b506001600160a01b03821660009081526008602090815260408083208484529091529020545b92915050565b600c546001600160a01b0316331461085d5760405162461bcd60e51b8152600401610582906128fd565b6001600160a01b0381163b151580156108825750610882816385d15e5d60e01b611653565b156108ef57601380546001600160a01b0319166001600160a01b0383161790556108ae816103e8611676565b6040516001600160a01b03821681527fe69ae954380d3509a4d5e45681d32c5843904c2cc7602407bdf8abc8586cee769060200160405180910390a1610937565b60405162461bcd60e51b815260206004820152601960248201527f6e6f74206120526166666c657220696d706c656d656e746572000000000000006044820152606401610582565b50565b6014805461094790612a11565b80601f016020809104026020016040519081016040528092919081815260200182805461097390612a11565b80156109c05780601f10610995576101008083540402835291602001916109c0565b820191906000526020600020905b8154815290600101906020018083116109a357829003601f168201915b505050505081565b600d546001600160a01b03163314610a225760405162461bcd60e51b815260206004820152601960248201527f63616c6c6572206973206e6f74207468652063726561746f72000000000000006044820152606401610582565b6017546040516370a0823160e01b81523060048201526001600160a01b039091169063a9059cbb90339083906370a082319060240160206040518083038186803b158015610a6f57600080fd5b505afa158015610a83573d6000803e3d6000fd5b505050506040513d601f19601f82011682018060405250810190610aa791906127a5565b6040516001600160e01b031960e085901b1681526001600160a01b0390921660048301526024820152604401602060405180830381600087803b158015610aed57600080fd5b505af1158015610b01573d6000803e3d6000fd5b505050506040513d601f19601f8201168201806040525081019061093791906126f3565b6106b88383836040518060200160405280600081525061122c565b600c546001600160a01b03163314610b6a5760405162461bcd60e51b8152600401610582906128fd565b8051610b7d90601490602084019061246e565b5050565b6000610b8c600a5490565b8210610bef5760405162461bcd60e51b815260206004820152602c60248201527f455243373231456e756d657261626c653a20676c6f62616c20696e646578206f60448201526b7574206f6620626f756e647360a01b6064820152608401610582565b600a8281548110610c1057634e487b7160e01b600052603260045260246000fd5b90600052602060002001549050919050565b6000818152600460205260408120546001600160a01b0316806104725760405162461bcd60e51b815260206004820152602960248201527f4552433732313a206f776e657220717565727920666f72206e6f6e657869737460448201526832b73a103a37b5b2b760b91b6064820152608401610582565b60006001600160a01b038216610d045760405162461bcd60e51b815260206004820152602a60248201527f4552433732313a2062616c616e636520717565727920666f7220746865207a65604482015269726f206164647265737360b01b6064820152608401610582565b506001600160a01b031660009081526005602052604090205490565b600c546001600160a01b03163314610d4a5760405162461bcd60e51b8152600401610582906128fd565b610d54600061178a565b565b60606003805461048990612a11565b60155415610db757601554421015610db75760405162461bcd60e51b81526020600482015260156024820152741b5a5b9d1a5b99c81a5cc81d1a5b595b1bd8dad959605a1b6044820152606401610582565b6013546001600160a01b0316610e015760405162461bcd60e51b815260206004820152600f60248201526e36b4b9b9b4b733903930b3333632b960891b6044820152606401610582565b60008111610e4a5760405162461bcd60e51b81526020600482015260166024820152750616d6f756e74206d7573742062652061626f766520360541b6044820152606401610582565b60125481610e57600a5490565b610e619190612983565b1115610ea45760405162461bcd60e51b81526020600482015260126024820152711b585e081cdd5c1c1b1e481c995858da195960721b6044820152606401610582565b6017546016546001600160a01b03909116906323b872dd9033903090610eca90866129af565b6040516001600160e01b031960e086901b1681526001600160a01b0393841660048201529290911660248301526044820152606401602060405180830381600087803b158015610f1957600080fd5b505af1158015610f2d573d6000803e3d6000fd5b505050506040513d601f19601f82011682018060405250810190610f5191906126f3565b610f885760405162461bcd60e51b81526020600482015260086024820152671b9bdd081c185a5960c21b6044820152606401610582565b6000600a601654610f99919061299b565b9050600082610fa7600a5490565b610fb19190612983565b9050600044423386604051602001610ff49493929190938452602084019290925260601b6bffffffffffffffffffffffff19166040830152605482015260740190565b60408051601f1981840301815291905280516020909101206011805460ff1916600117905590505b81611026600e5490565b10156112115761103a600e80546001019055565b61104c33611047600e5490565b6117dc565b6013546001600160a01b031663771602f7611066600e5490565b600e546110739085612a67565b61107e906001612983565b6040516001600160e01b031960e085901b16815260048101929092526024820152604401602060405180830381600087803b1580156110bc57600080fd5b505af11580156110d0573d6000803e3d6000fd5b505050506040513d601f19601f820116820180604052508101906110f491906126f3565b5060175460135460405163a9059cbb60e01b81526001600160a01b0391821660048201526024810186905291169063a9059cbb90604401602060405180830381600087803b15801561114557600080fd5b505af1158015611159573d6000803e3d6000fd5b505050506040513d601f19601f8201168201806040525081019061117d91906126f3565b5060135460405163629374ab60e01b8152600481018390526001600160a01b039091169063629374ab90602401602060405180830381600087803b1580156111c457600080fd5b505af11580156111d8573d6000803e3d6000fd5b505050506040513d601f19601f820116820180604052508101906111fc91906126f3565b50600e5461120a90826129ce565b905061101c565b50506011805460ff191690555050565b610b7d3383836117f6565b61123633836113af565b6112525760405162461bcd60e51b815260040161058290612932565b61125e848484846118c5565b50505050565b606061126e6118f8565b61127783611ac7565b604051602001611288929190612826565b6040516020818303038152906040529050919050565b600c546001600160a01b031633146112c85760405162461bcd60e51b8152600401610582906128fd565b6001600160a01b03811661132d5760405162461bcd60e51b815260206004820152602660248201527f4f776e61626c653a206e6577206f776e657220697320746865207a65726f206160448201526564647265737360d01b6064820152608401610582565b6109378161178a565b600061047282611be2565b600081815260066020526040902080546001600160a01b0319166001600160a01b038416908117909155819061137682610c22565b6001600160a01b03167f8c5be1e5ebec7d5bd14f71427d1e84f3dd0314c0f7b2291e5b200ac8c7c3b92560405160405180910390a45050565b6000818152600460205260408120546001600160a01b03166114285760405162461bcd60e51b815260206004820152602c60248201527f4552433732313a206f70657261746f7220717565727920666f72206e6f6e657860448201526b34b9ba32b73a103a37b5b2b760a11b6064820152608401610582565b600061143383610c22565b9050806001600160a01b0316846001600160a01b0316148061146e5750836001600160a01b03166114638461050d565b6001600160a01b0316145b8061149e57506001600160a01b0380821660009081526007602090815260408083209388168352929052205460ff165b949350505050565b826001600160a01b03166114b982610c22565b6001600160a01b03161461151d5760405162461bcd60e51b815260206004820152602560248201527f4552433732313a207472616e736665722066726f6d20696e636f72726563742060448201526437bbb732b960d91b6064820152608401610582565b6001600160a01b03821661157f5760405162461bcd60e51b8152602060048201526024808201527f4552433732313a207472616e7366657220746f20746865207a65726f206164646044820152637265737360e01b6064820152608401610582565b61158a838383611c07565b611595600082611341565b6001600160a01b03831660009081526005602052604081208054600192906115be9084906129ce565b90915550506001600160a01b03821660009081526005602052604081208054600192906115ec908490612983565b909155505060008181526004602052604080822080546001600160a01b0319166001600160a01b0386811691821790925591518493918716917fddf252ad1be2c89b69c2b068fc378daa952ba7f163c4a11628f55a4df523b3ef91a46106b8838383611c12565b600061165e83611dd0565b801561166f575061166f8383611e03565b9392505050565b6127106001600160601b03821611156116e45760405162461bcd60e51b815260206004820152602a60248201527f455243323938313a20726f79616c7479206665652077696c6c206578636565646044820152692073616c65507269636560b01b6064820152608401610582565b6001600160a01b03821661173a5760405162461bcd60e51b815260206004820152601960248201527f455243323938313a20696e76616c6964207265636569766572000000000000006044820152606401610582565b604080518082019091526001600160a01b039283168082526001600160601b03929092166020909101819052600080546001600160a01b031916909217909216600160a01b909202919091179055565b600c80546001600160a01b038381166001600160a01b0319831681179093556040519116919082907f8be0079c531659141344cd1fd0a4f28419497f9722a3daafe3b4186f6b6457e090600090a35050565b610b7d828260405180602001604052806000815250611eec565b816001600160a01b0316836001600160a01b031614156118585760405162461bcd60e51b815260206004820152601960248201527f4552433732313a20617070726f766520746f2063616c6c6572000000000000006044820152606401610582565b6001600160a01b03838116600081815260076020908152604080832094871680845294825291829020805460ff191686151590811790915591519182527f17307eab39ab6107e8899845ad3d59bd9653f200f220920489ca2b5937696c31910160405180910390a3505050565b6118d08484846114a6565b6118dc84848484611f1f565b61125e5760405162461bcd60e51b8152600401610582906128ab565b606060006010805461190990612a11565b80601f016020809104026020016040519081016040528092919081815260200182805461193590612a11565b80156119825780601f1061195757610100808354040283529160200191611982565b820191906000526020600020905b81548152906001019060200180831161196557829003601f168201915b505050505090506000815111801561199e5750601254600a5410155b15611a3657601080546119b090612a11565b80601f01602080910402602001604051908101604052809291908181526020018280546119dc90612a11565b8015611a295780601f106119fe57610100808354040283529160200191611a29565b820191906000526020600020905b815481529060010190602001808311611a0c57829003601f168201915b505050505091505061050a565b600f8054611a4390612a11565b80601f0160208091040260200160405190810160405280929190818152602001828054611a6f90612a11565b8015611abc5780601f10611a9157610100808354040283529160200191611abc565b820191906000526020600020905b815481529060010190602001808311611a9f57829003601f168201915b505050505091505090565b606081611aec57506040805180820190915260018152600360fc1b6020820152610475565b8160005b8115611b165780611b0081612a4c565b9150611b0f9050600a8361299b565b9150611af0565b60008167ffffffffffffffff811115611b3f57634e487b7160e01b600052604160045260246000fd5b6040519080825280601f01601f191660200182016040528015611b69576020820181803683370190505b5090505b841561149e57611b7e6001836129ce565b9150611b8b600a86612a67565b611b96906030612983565b60f81b818381518110611bb957634e487b7160e01b600052603260045260246000fd5b60200101906001600160f81b031916908160001a905350611bdb600a8661299b565b9450611b6d565b60006001600160e01b0319821663780e9d6360e01b148061047257506104728261202c565b6106b883838361206c565b60115460ff16158015611c2d57506000611c2b600a5490565b115b8015611c4357506013546001600160a01b031615155b156106b8576040805144602082015242918101919091526bffffffffffffffffffffffff19606085811b82168184015284901b1660748201526088810182905260009060a80160408051601f1981840301815291905280516020909101206013549091506001600160a01b031663771602f783611cbf600a5490565b611cc99085612a67565b611cd4906001612983565b6040516001600160e01b031960e085901b16815260048101929092526024820152604401602060405180830381600087803b158015611d1257600080fd5b505af1158015611d26573d6000803e3d6000fd5b505050506040513d601f19601f82011682018060405250810190611d4a91906126f3565b5060135460405163629374ab60e01b8152600481018390526001600160a01b039091169063629374ab90602401602060405180830381600087803b158015611d9157600080fd5b505af1158015611da5573d6000803e3d6000fd5b505050506040513d601f19601f82011682018060405250810190611dc991906126f3565b5050505050565b6000611de3826301ffc9a760e01b611e03565b80156104725750611dfc826001600160e01b0319611e03565b1592915050565b604080516001600160e01b0319831660248083019190915282518083039091018152604490910182526020810180516001600160e01b03166301ffc9a760e01b179052905160009190829081906001600160a01b0387169061753090611e6a90869061280a565b6000604051808303818686fa925050503d8060008114611ea6576040519150601f19603f3d011682016040523d82523d6000602084013e611eab565b606091505b5091509150602081511015611ec6576000935050505061082d565b818015611ee2575080806020019051810190611ee291906126f3565b9695505050505050565b611ef68383612129565b611f036000848484611f1f565b6106b85760405162461bcd60e51b8152600401610582906128ab565b60006001600160a01b0384163b1561202157604051630a85bd0160e11b81526001600160a01b0385169063150b7a0290611f63903390899088908890600401612865565b602060405180830381600087803b158015611f7d57600080fd5b505af1925050508015611fad575060408051601f3d908101601f19168201909252611faa9181019061272b565b60015b612007573d808015611fdb576040519150601f19603f3d011682016040523d82523d6000602084013e611fe0565b606091505b508051611fff5760405162461bcd60e51b8152600401610582906128ab565b805181602001fd5b6001600160e01b031916630a85bd0160e11b14905061149e565b506001949350505050565b60006001600160e01b031982166380ac58cd60e01b148061205d57506001600160e01b03198216635b5e139f60e01b145b8061047257506104728261227f565b6001600160a01b0383166120c7576120c281600a80546000838152600b60205260408120829055600182018355919091527fc65a7bb8d6351c1cf70c95a316cc6a92839c986682d98bc35f958f4883f9d2a80155565b6120ea565b816001600160a01b0316836001600160a01b0316146120ea576120ea83826122b4565b6001600160a01b0382166121065761210181612351565b6106b8565b826001600160a01b0316826001600160a01b0316146106b8576106b8828261242a565b6001600160a01b03821661217f5760405162461bcd60e51b815260206004820181905260248201527f4552433732313a206d696e7420746f20746865207a65726f20616464726573736044820152606401610582565b6000818152600460205260409020546001600160a01b0316156121e45760405162461bcd60e51b815260206004820152601c60248201527f4552433732313a20746f6b656e20616c7265616479206d696e746564000000006044820152606401610582565b6121f060008383611c07565b6001600160a01b0382166000908152600560205260408120805460019290612219908490612983565b909155505060008181526004602052604080822080546001600160a01b0319166001600160a01b03861690811790915590518392907fddf252ad1be2c89b69c2b068fc378daa952ba7f163c4a11628f55a4df523b3ef908290a4610b7d60008383611c12565b60006001600160e01b0319821663152a902d60e11b148061047257506301ffc9a760e01b6001600160e01b0319831614610472565b600060016122c184610c99565b6122cb91906129ce565b60008381526009602052604090205490915080821461231e576001600160a01b03841660009081526008602090815260408083208584528252808320548484528184208190558352600990915290208190555b5060009182526009602090815260408084208490556001600160a01b039094168352600881528383209183525290812055565b600a54600090612363906001906129ce565b6000838152600b6020526040812054600a805493945090928490811061239957634e487b7160e01b600052603260045260246000fd5b9060005260206000200154905080600a83815481106123c857634e487b7160e01b600052603260045260246000fd5b6000918252602080832090910192909255828152600b9091526040808220849055858252812055600a80548061240e57634e487b7160e01b600052603160045260246000fd5b6001900381819060005260206000200160009055905550505050565b600061243583610c99565b6001600160a01b039093166000908152600860209081526040808320868452825280832085905593825260099052919091209190915550565b82805461247a90612a11565b90600052602060002090601f01602090048101928261249c57600085556124e2565b82601f106124b557805160ff19168380011785556124e2565b828001600101855582156124e2579182015b828111156124e25782518255916020019190600101906124c7565b506124ee9291506124f2565b5090565b5b808211156124ee57600081556001016124f3565b600067ffffffffffffffff8084111561252257612522612aa7565b604051601f8501601f19908116603f0116810190828211818310171561254a5761254a612aa7565b8160405280935085815286868601111561256357600080fd5b858560208301376000602087830101525050509392505050565b80356001600160a01b038116811461047557600080fd5b6000602082840312156125a5578081fd5b61166f8261257d565b600080604083850312156125c0578081fd5b6125c98361257d565b91506125d76020840161257d565b90509250929050565b6000806000606084860312156125f4578081fd5b6125fd8461257d565b925061260b6020850161257d565b9150604084013590509250925092565b60008060008060808587031215612630578081fd5b6126398561257d565b93506126476020860161257d565b925060408501359150606085013567ffffffffffffffff811115612669578182fd5b8501601f81018713612679578182fd5b61268887823560208401612507565b91505092959194509250565b600080604083850312156126a6578182fd5b6126af8361257d565b915060208301356126bf81612abd565b809150509250929050565b600080604083850312156126dc578182fd5b6126e58361257d565b946020939093013593505050565b600060208284031215612704578081fd5b815161166f81612abd565b600060208284031215612720578081fd5b813561166f81612acb565b60006020828403121561273c578081fd5b815161166f81612acb565b600060208284031215612758578081fd5b813567ffffffffffffffff81111561276e578182fd5b8201601f8101841361277e578182fd5b61149e84823560208401612507565b60006020828403121561279e578081fd5b5035919050565b6000602082840312156127b6578081fd5b5051919050565b600080604083850312156127cf578182fd5b50508035926020909101359150565b600081518084526127f68160208601602086016129e5565b601f01601f19169290920160200192915050565b6000825161281c8184602087016129e5565b9190910192915050565b600083516128388184602088016129e5565b83519083019061284c8183602088016129e5565b64173539b7b760d91b9101908152600501949350505050565b6001600160a01b0385811682528416602082015260408101839052608060608201819052600090611ee2908301846127de565b60006020825261166f60208301846127de565b60208082526032908201527f4552433732313a207472616e7366657220746f206e6f6e20455243373231526560408201527131b2b4bb32b91034b6b83632b6b2b73a32b960711b606082015260800190565b6020808252818101527f4f776e61626c653a2063616c6c6572206973206e6f7420746865206f776e6572604082015260600190565b60208082526031908201527f4552433732313a207472616e736665722063616c6c6572206973206e6f74206f6040820152701ddb995c881b9bdc88185c1c1c9bdd9959607a1b606082015260800190565b6000821982111561299657612996612a7b565b500190565b6000826129aa576129aa612a91565b500490565b60008160001904831182151516156129c9576129c9612a7b565b500290565b6000828210156129e0576129e0612a7b565b500390565b60005b83811015612a005781810151838201526020016129e8565b8381111561125e5750506000910152565b600281046001821680612a2557607f821691505b60208210811415612a4657634e487b7160e01b600052602260045260246000fd5b50919050565b6000600019821415612a6057612a60612a7b565b5060010190565b600082612a7657612a76612a91565b500690565b634e487b7160e01b600052601160045260246000fd5b634e487b7160e01b600052601260045260246000fd5b634e487b7160e01b600052604160045260246000fd5b801515811461093757600080fd5b6001600160e01b03198116811461093757600080fdfea2646970667358221220c62c1b3d3833f80cfe46b3dc2194ee290360519ab19efd92553bab8eddcf30af64736f6c63430008020033",
  "linkReferences": {},
  "deployedLinkReferences": {}
}