{
  "_format": "hh-sol-artifact-1",
  "contractName": "RaffleFactory",
  "sourceName": "contracts/RaffleFactory.sol",
  "abi": [
    {
      "inputs": [
        {
          "internalType": "address[]",
          "name": "tokens",
          "type": "address[]"
        }
      ],
      "stateMutability": "nonpayable",
      "type": "constructor"
    },
    {
      "anonymous": false,
      "inputs": [
        {
          "indexed": true,
          "internalType": "address",
          "name": "previousOwner",
          "type": "address"
        },
        {
          "indexed": true,
          "internalType": "address",
          "name": "newOwner",
          "type": "address"
        }
      ],
      "name": "OwnershipTransferred",
      "type": "event"
    },
    {
      "anonymous": false,
      "inputs": [
        {
          "indexed": false,
          "internalType": "address",
          "name": "rafflable",
          "type": "address"
        },
        {
          "indexed": false,
          "internalType": "address",
          "name": "raffler",
          "type": "address"
        },
        {
          "indexed": false,
          "internalType": "address",
          "name": "creator",
          "type": "address"
        }
      ],
      "name": "RafflePublished",
      "type": "event"
    },
    {
      "inputs": [],
      "name": "enabled",
      "outputs": [
        {
          "internalType": "bool",
          "name": "",
          "type": "bool"
        }
      ],
      "stateMutability": "view",
      "type": "function"
    },
    {
      "inputs": [],
      "name": "getTokens",
      "outputs": [
        {
          "internalType": "address[]",
          "name": "",
          "type": "address[]"
        }
      ],
      "stateMutability": "view",
      "type": "function"
    },
    {
      "inputs": [],
      "name": "owner",
      "outputs": [
        {
          "internalType": "address",
          "name": "",
          "type": "address"
        }
      ],
      "stateMutability": "view",
      "type": "function"
    },
    {
      "inputs": [
        {
          "internalType": "string",
          "name": "name",
          "type": "string"
        },
        {
          "internalType": "string",
          "name": "configUri",
          "type": "string"
        },
        {
          "internalType": "string",
          "name": "baseUri",
          "type": "string"
        },
        {
          "internalType": "string",
          "name": "secretUri",
          "type": "string"
        },
        {
          "internalType": "uint256",
          "name": "cap",
          "type": "uint256"
        },
        {
          "internalType": "uint256",
          "name": "timelock",
          "type": "uint256"
        },
        {
          "internalType": "address",
          "name": "token",
          "type": "address"
        },
        {
          "internalType": "uint256",
          "name": "cost",
          "type": "uint256"
        },
        {
          "internalType": "uint256",
          "name": "prize",
          "type": "uint256"
        }
      ],
      "name": "publish",
      "outputs": [],
      "stateMutability": "nonpayable",
      "type": "function"
    },
    {
      "inputs": [],
      "name": "rafflable",
      "outputs": [
        {
          "internalType": "contract IRafflableFactory",
          "name": "",
          "type": "address"
        }
      ],
      "stateMutability": "view",
      "type": "function"
    },
    {
      "inputs": [
        {
          "internalType": "uint256",
          "name": "",
          "type": "uint256"
        }
      ],
      "name": "rafflables",
      "outputs": [
        {
          "internalType": "address",
          "name": "",
          "type": "address"
        }
      ],
      "stateMutability": "view",
      "type": "function"
    },
    {
      "inputs": [],
      "name": "raffler",
      "outputs": [
        {
          "internalType": "contract IRafflerFactory",
          "name": "",
          "type": "address"
        }
      ],
      "stateMutability": "view",
      "type": "function"
    },
    {
      "inputs": [],
      "name": "renounceOwnership",
      "outputs": [],
      "stateMutability": "nonpayable",
      "type": "function"
    },
    {
      "inputs": [
        {
          "internalType": "address",
          "name": "to",
          "type": "address"
        }
      ],
      "name": "setRafflableFactory",
      "outputs": [],
      "stateMutability": "nonpayable",
      "type": "function"
    },
    {
      "inputs": [
        {
          "internalType": "address",
          "name": "to",
          "type": "address"
        }
      ],
      "name": "setRafflerFactory",
      "outputs": [],
      "stateMutability": "nonpayable",
      "type": "function"
    },
    {
      "inputs": [],
      "name": "toggleOnOff",
      "outputs": [],
      "stateMutability": "nonpayable",
      "type": "function"
    },
    {
      "inputs": [
        {
          "internalType": "address",
          "name": "newOwner",
          "type": "address"
        }
      ],
      "name": "transferOwnership",
      "outputs": [],
      "stateMutability": "nonpayable",
      "type": "function"
    }
  ],
  "bytecode": "0x60806040526003805460ff191660011790553480156200001e57600080fd5b5060405162000ded38038062000ded83398101604081905262000041916200019f565b6200004c33620000c0565b60005b81518160ff161015620000b857620000a2828260ff16815181106200008457634e487b7160e01b600052603260045260246000fd5b602002602001015160016200011060201b620006581790919060201c565b5080620000af8162000272565b9150506200004f565b5050620002b5565b600080546001600160a01b038381166001600160a01b0319831681178455604051919092169283917f8be0079c531659141344cd1fd0a4f28419497f9722a3daafe3b4186f6b6457e09190a35050565b600062000127836001600160a01b03841662000130565b90505b92915050565b600081815260018301602052604081205462000179575081546001818101845560008481526020808220909301849055845484825282860190935260409020919091556200012a565b5060006200012a565b80516001600160a01b03811681146200019a57600080fd5b919050565b60006020808385031215620001b2578182fd5b82516001600160401b0380821115620001c9578384fd5b818501915085601f830112620001dd578384fd5b815181811115620001f257620001f26200029f565b838102604051601f19603f830116810181811085821117156200021957620002196200029f565b604052828152858101935084860182860187018a101562000238578788fd5b8795505b838610156200026557620002508162000182565b8552600195909501949386019386016200023c565b5098975050505050505050565b600060ff821660ff8114156200029657634e487b7160e01b82526011600452602482fd5b60010192915050565b634e487b7160e01b600052604160045260246000fd5b610b2880620002c56000396000f3fe608060405234801561001057600080fd5b50600436106100b45760003560e01c806395a296671161007157806395a296671461013c578063aa6ca8081461014f578063d714db6c14610164578063dd973a1314610177578063f10eb67a1461018a578063f2fde38b1461019d576100b4565b80631e9a81e8146100b9578063238dafe0146100e95780635c2e523514610106578063715018a6146101105780638da5cb5b14610118578063918a034214610129575b600080fd5b6100cc6100c736600461095a565b6101b0565b6040516001600160a01b0390911681526020015b60405180910390f35b6003546100f69060ff1681565b60405190151581526020016100e0565b61010e6101da565b005b61010e610221565b6000546001600160a01b03166100cc565b61010e61013736600461087a565b610257565b61010e61014a36600461083b565b610514565b610157610560565b6040516100e091906109bd565b6006546100cc906001600160a01b031681565b61010e61018536600461083b565b610571565b6005546100cc906001600160a01b031681565b61010e6101ab36600461083b565b6105bd565b600481815481106101c057600080fd5b6000918252602090912001546001600160a01b0316905081565b6000546001600160a01b0316331461020d5760405162461bcd60e51b815260040161020490610a92565b60405180910390fd5b6003805460ff19811660ff90911615179055565b6000546001600160a01b0316331461024b5760405162461bcd60e51b815260040161020490610a92565b6102556000610676565b565b60035460ff166102a25760405162461bcd60e51b81526020600482015260166024820152751c1d589b1a5cda1a5b99c81a5cc8191a5cd8589b195960521b6044820152606401610204565b6102ad6001846106c6565b6102ed5760405162461bcd60e51b81526020600482015260116024820152701d1bdad95b881b9bdd08185b1b1bddd959607a1b6044820152606401610204565b6005546040516363f2b41360e11b81526000916001600160a01b03169063c7e568269061032e908d908d908d908d908d908d9033908e908e90600401610a0a565b602060405180830381600087803b15801561034857600080fd5b505af115801561035c573d6000803e3d6000fd5b505050506040513d601f19601f82011682018060405250810190610380919061085e565b6006546040516001621a8da160e01b031981526001600160a01b0380841660048301528781166024830152604482018690529293506000929091169063ffe5725f90606401602060405180830381600087803b1580156103df57600080fd5b505af11580156103f3573d6000803e3d6000fd5b505050506040513d601f19601f82011682018060405250810190610417919061085e565b60405163375df52b60e01b81526001600160a01b0380831660048301529192509083169063375df52b90602401600060405180830381600087803b15801561045e57600080fd5b505af1158015610472573d6000803e3d6000fd5b5050600480546001810182556000919091527f8a35acfbc15ff81a39ae7d344fd709f28e8600b4aa8c65c6b64bfe7fe36bd19b0180546001600160a01b038681166001600160a01b03199092168217909255604080519182529185166020820152338183015290517ff1b3bb8cbc197ed1eac96fe32c0f9f29ac7a772251ceb196b20b90f1314ce2749350908190036060019150a15050505050505050505050565b6000546001600160a01b0316331461053e5760405162461bcd60e51b815260040161020490610a92565b600680546001600160a01b0319166001600160a01b0392909216919091179055565b606061056c60016106e8565b905090565b6000546001600160a01b0316331461059b5760405162461bcd60e51b815260040161020490610a92565b600580546001600160a01b0319166001600160a01b0392909216919091179055565b6000546001600160a01b031633146105e75760405162461bcd60e51b815260040161020490610a92565b6001600160a01b03811661064c5760405162461bcd60e51b815260206004820152602660248201527f4f776e61626c653a206e6577206f776e657220697320746865207a65726f206160448201526564647265737360d01b6064820152608401610204565b61065581610676565b50565b600061066d836001600160a01b0384166106fe565b90505b92915050565b600080546001600160a01b038381166001600160a01b0319831681178455604051919092169283917f8be0079c531659141344cd1fd0a4f28419497f9722a3daafe3b4186f6b6457e09190a35050565b6001600160a01b0381166000908152600183016020526040812054151561066d565b606060006106f58361074d565b9150505b919050565b600081815260018301602052604081205461074557508154600181810184556000848152602080822090930184905584548482528286019093526040902091909155610670565b506000610670565b60608160000180548060200260200160405190810160405280929190818152602001828054801561079d57602002820191906000526020600020905b815481526020019060010190808311610789575b50505050509050919050565b80356106f981610add565b600082601f8301126107c4578081fd5b813567ffffffffffffffff808211156107df576107df610ac7565b604051601f8301601f19908116603f0116810190828211818310171561080757610807610ac7565b8160405283815286602085880101111561081f578485fd5b8360208701602083013792830160200193909352509392505050565b60006020828403121561084c578081fd5b813561085781610add565b9392505050565b60006020828403121561086f578081fd5b815161085781610add565b60008060008060008060008060006101208a8c031215610898578485fd5b893567ffffffffffffffff808211156108af578687fd5b6108bb8d838e016107b4565b9a5060208c01359150808211156108d0578687fd5b6108dc8d838e016107b4565b995060408c01359150808211156108f1578687fd5b6108fd8d838e016107b4565b985060608c0135915080821115610912578687fd5b5061091f8c828d016107b4565b96505060808a0135945060a08a0135935061093c60c08b016107a9565b925060e08a013591506101008a013590509295985092959850929598565b60006020828403121561096b578081fd5b5035919050565b60008151808452815b818110156109975760208185018101518683018201520161097b565b818111156109a85782602083870101525b50601f01601f19169290920160200192915050565b6020808252825182820181905260009190848201906040850190845b818110156109fe5783516001600160a01b0316835292840192918401916001016109d9565b50909695505050505050565b6000610120808352610a1e8184018d610972565b90508281036020840152610a32818c610972565b90508281036040840152610a46818b610972565b90508281036060840152610a5a818a610972565b6080840198909852505060a08101949094526001600160a01b0392831660c0850152911660e083015261010090910152949350505050565b6020808252818101527f4f776e61626c653a2063616c6c6572206973206e6f7420746865206f776e6572604082015260600190565b634e487b7160e01b600052604160045260246000fd5b6001600160a01b038116811461065557600080fdfea26469706673582212202b90371689e0c67f047c18e6e4ea1bfe63a170a9528587ef409413a01fbf175b64736f6c63430008020033",
  "linkReferences": {},
  "deployedLinkReferences": {}
}