{
  "_format": "hh-sol-artifact-1",
  "contractName": "RafflerFactory",
  "sourceName": "contracts/RafflerFactory.sol",
  "abi": [
    {
      "inputs": [
        {
          "internalType": "address",
          "name": "_factory",
          "type": "address"
        }
      ],
      "stateMutability": "nonpayable",
      "type": "constructor"
    },
    {
      "anonymous": false,
      "inputs": [
        {
          "indexed": false,
          "internalType": "address",
          "name": "raffler",
          "type": "address"
        },
        {
          "indexed": false,
          "internalType": "address",
          "name": "token",
          "type": "address"
        },
        {
          "indexed": false,
          "internalType": "uint256",
          "name": "prize",
          "type": "uint256"
        }
      ],
      "name": "RafflerCreated",
      "type": "event"
    },
    {
      "inputs": [
        {
          "internalType": "address",
          "name": "rafflable",
          "type": "address"
        },
        {
          "internalType": "address",
          "name": "token",
          "type": "address"
        },
        {
          "internalType": "uint256",
          "name": "prize",
          "type": "uint256"
        }
      ],
      "name": "create",
      "outputs": [
        {
          "internalType": "address",
          "name": "",
          "type": "address"
        }
      ],
      "stateMutability": "nonpayable",
      "type": "function"
    },
    {
      "inputs": [],
      "name": "factory",
      "outputs": [
        {
          "internalType": "address",
          "name": "",
          "type": "address"
        }
      ],
      "stateMutability": "view",
      "type": "function"
    }
  ],
  "bytecode": "0x608060405234801561001057600080fd5b506040516119e73803806119e783398101604081905261002f91610054565b600080546001600160a01b0319166001600160a01b0392909216919091179055610082565b600060208284031215610065578081fd5b81516001600160a01b038116811461007b578182fd5b9392505050565b611956806100916000396000f3fe608060405234801561001057600080fd5b50600436106100365760003560e01c8063c45a01551461003b578063ffe5725f1461006a575b600080fd5b60005461004e906001600160a01b031681565b6040516001600160a01b03909116815260200160405180910390f35b61004e610078366004610201565b600080546001600160a01b031633146100d75760405162461bcd60e51b815260206004820152601960248201527f63616c6c6572206973206e6f742074686520666163746f727900000000000000604482015260640160405180910390fd5b60008484846040516100e8906101d8565b6001600160a01b0393841681529290911660208301526040820152606001604051809103906000f080158015610122573d6000803e3d6000fd5b5060005460405163f2fde38b60e01b81526001600160a01b03918216600482015291925082169063f2fde38b90602401600060405180830381600087803b15801561016c57600080fd5b505af1158015610180573d6000803e3d6000fd5b5050604080516001600160a01b038086168252881660208201529081018690527f312c6ae02ecf187ce184416aabd64bb54beefc2870be34f71bcc9e2ead5b50999250606001905060405180910390a1949350505050565b6116e48061023d83390190565b80356001600160a01b03811681146101fc57600080fd5b919050565b600080600060608486031215610215578283fd5b61021e846101e5565b925061022c602085016101e5565b915060408401359050925092509256fe60a06040523480156200001157600080fd5b50604051620016e4380380620016e4833981016040819052620000349162000251565b6200003f3362000078565b6001600160601b0319606084901b16608052620000636385d15e5d60e01b620000ca565b6200006f82826200014e565b50505062000291565b600180546001600160a01b038381166001600160a01b0319831681179093556040519116919082907f8be0079c531659141344cd1fd0a4f28419497f9722a3daafe3b4186f6b6457e090600090a35050565b6001600160e01b03198082161415620001295760405162461bcd60e51b815260206004820152601c60248201527f4552433136353a20696e76616c696420696e7465726661636520696400000000604482015260640160405180910390fd5b6001600160e01b0319166000908152602081905260409020805460ff19166001179055565b62000169826002620001c260201b62000d691790919060201c565b506001600160a01b0382166000818152600a6020908152604091829020849055815192835282018390527f9ecf847944cbf529e9369a6dd406da52e7bc4c37c3de326072fcc840dbd0213a910160405180910390a15050565b6000620001d9836001600160a01b038416620001e2565b90505b92915050565b60008181526001830160205260408120546200022b57508154600181810184556000848152602080822090930184905584548482528286019093526040902091909155620001dc565b506000620001dc565b80516001600160a01b03811681146200024c57600080fd5b919050565b60008060006060848603121562000266578283fd5b620002718462000234565b9250620002816020850162000234565b9150604084015190509250925092565b60805160601c61141f620002c560003960008181610276015281816102ed015281816106d40152610aab015261141f6000f3fe608060405234801561001057600080fd5b506004361061010b5760003560e01c80637578974d116100a25780639d63848a116100715780639d63848a14610247578063af38d7571461025c578063f10eb67a14610271578063f2fde38b14610298578063fe95a5ce146102ab5761010b565b80637578974d146101dc578063771602f7146101fc5780638da5cb5b1461020f57806390542801146102345761010b565b8063584cc547116100de578063584cc547146101835780635f0d3448146101ae578063629374ab146101c1578063715018a6146101d45761010b565b806301ffc9a71461011057806304eb650e146101385780631179d64b146101665780632e1a7d4d1461016e575b600080fd5b61012361011e366004611205565b6102b3565b60405190151581526020015b60405180910390f35b61015861014636600461116a565b600a6020526000908152604090205481565b60405190815260200161012f565b6101586102c4565b61018161017c3660046111ed565b6102d5565b005b610158610191366004611245565b600c60209081526000928352604080842090915290825290205481565b6101586101bc36600461116a565b6105e8565b6101236101cf3660046111ed565b6106c7565b610181610a68565b6101586101ea36600461116a565b600b6020526000908152604090205481565b61012361020a366004611274565b610a9e565b6001546001600160a01b03165b6040516001600160a01b03909116815260200161012f565b6101816102423660046111a2565b610b84565b61024f610caa565b60405161012f9190611295565b610264610cb6565b60405161012f91906112e2565b61021c7f000000000000000000000000000000000000000000000000000000000000000081565b6101816102a636600461116a565b610cc2565b610264610d5d565b60006102be82610d7e565b92915050565b60006102d06004610dba565b905090565b6040516331a9108f60e11b81526004810182905281907f00000000000000000000000000000000000000000000000000000000000000006001600160a01b031690636352211e9060240160206040518083038186803b15801561033757600080fd5b505afa15801561034b573d6000803e3d6000fd5b505050506040513d601f19601f8201168201806040525081019061036f9190611186565b6001600160a01b0316336001600160a01b0316146103c95760405162461bcd60e51b81526020600482015260126024820152713737ba1037bbb732b91037b3103a37b5b2b760711b60448201526064015b60405180910390fd5b6103d4600882610dc4565b6104185760405162461bcd60e51b81526020600482015260156024820152743a37b5b2b71034b9903737ba1030903bb4b73732b960591b60448201526064016103c0565b60005b6104256002610dba565b8160ff1610156105d757600061043f600260ff8416610ddc565b6000858152600c602090815260408083206001600160a01b038516845290915290205490915080156105c25760405163a9059cbb60e01b8152336004820152602481018290526001600160a01b0383169063a9059cbb90604401602060405180830381600087803b1580156104b357600080fd5b505af11580156104c7573d6000803e3d6000fd5b505050506040513d601f19601f820116820180604052508101906104eb91906111cd565b6105375760405162461bcd60e51b815260206004820152601d60248201527f6572726f72207768696c65207472616e73666572696e67207072697a6500000060448201526064016103c0565b6000858152600c602090815260408083206001600160a01b03861684528252808320839055600b90915281208054839290610573908490611367565b9091555050604080513381526001600160a01b03841660208201529081018290527f700a9113c5657f2572142e1a393bbf22583380532704785c39b48ae38e4bd9009060600160405180910390a15b505080806105cf9061137e565b91505061041b565b506105e3600883610de8565b505050565b6040516370a0823160e01b815230600482015260009081906001600160a01b038416906370a082319060240160206040518083038186803b15801561062c57600080fd5b505afa158015610640573d6000803e3d6000fd5b505050506040513d601f19601f82011682018060405250810190610664919061122d565b6001600160a01b0384166000908152600b602052604090205490915081101561069d57634e487b7160e01b600052600160045260246000fd5b6001600160a01b0383166000908152600b60205260409020546106c09082611367565b9392505050565b6000336001600160a01b037f000000000000000000000000000000000000000000000000000000000000000016146107415760405162461bcd60e51b815260206004820152601d60248201527f6f6e6c79206120726166666c61626c6520616c6c6f7765642063616c6c00000060448201526064016103c0565b61074961114b565b6000805b6107576002610dba565b8160ff161015610838576000610771600260ff8416610ddc565b9050600061077e826105e8565b6001600160a01b0383166000908152600a602052604090205490915081106107fa5760019350600a6000836001600160a01b03166001600160a01b0316815260200190815260200160002054858460ff16600a81106107ed57634e487b7160e01b600052603260045260246000fd5b6020020152506108269050565b80858460ff16600a811061081e57634e487b7160e01b600052603260045260246000fd5b602002015250505b806108308161137e565b91505061074d565b5080156106c057600061084b6004610dba565b604080514360208201524291810191909152606081018790526080016040516020818303038152906040528051906020012060001c61088a919061139e565b90506000610899600483610ddc565b905060005b6108a86002610dba565b8160ff161015610a4a576000858260ff16600a81106108d757634e487b7160e01b600052603260045260246000fd5b60200201511115610a385760006108f2600260ff8416610ddc565b9050858260ff16600a811061091757634e487b7160e01b600052603260045260246000fd5b6020020151600b6000836001600160a01b03166001600160a01b031681526020019081526020016000206000828254610950919061134f565b9091555086905060ff8316600a811061097957634e487b7160e01b600052603260045260246000fd5b602090810291909101516000858152600c835260408082206001600160a01b03861683529093529182208054919290916109b490849061134f565b909155507fb3c0323a3b9df1b8e6fac076cb538d20464354ed830d34e20d29ff82381cc415905083828860ff8616600a8110610a0057634e487b7160e01b600052603260045260246000fd5b6020020151604051610a2e939291909283526001600160a01b03919091166020830152604082015260600190565b60405180910390a1505b80610a428161137e565b91505061089e565b50610a56600882610df4565b50610a5f610e00565b50509392505050565b6001546001600160a01b03163314610a925760405162461bcd60e51b81526004016103c09061131a565b610a9c6000610e88565b565b6000336001600160a01b037f00000000000000000000000000000000000000000000000000000000000000001614610b185760405162461bcd60e51b815260206004820152601d60248201527f6f6e6c79206120726166666c61626c6520616c6c6f7765642063616c6c00000060448201526064016103c0565b610b23600684610df4565b8015610b355750610b35600483610df4565b15610b7b5760408051848152602081018490527f799bdfa446bc7e6936663094ee6db5db74b6fcdfc4dcf6cb7c0d56c352e99066910160405180910390a15060016102be565b50600092915050565b6001546001600160a01b03163314610bae5760405162461bcd60e51b81526004016103c09061131a565b600a610bba6002610dba565b10610c005760405162461bcd60e51b81526020600482015260166024820152751b585e1a5b5d5b481d1bdad95b9cc81c995858da195960521b60448201526064016103c0565b6001600160a01b0382163b610c4c5760405162461bcd60e51b81526020600482015260126024820152711b5d5cdd08189948184818dbdb9d1c9858dd60721b60448201526064016103c0565b60008111610c9c5760405162461bcd60e51b815260206004820152601f60248201527f7072697a65206d7573742062652067726561746572207468616e207a65726f0060448201526064016103c0565b610ca68282610eda565b5050565b60606102d06002610f3e565b60606102d06008610f3e565b6001546001600160a01b03163314610cec5760405162461bcd60e51b81526004016103c09061131a565b6001600160a01b038116610d515760405162461bcd60e51b815260206004820152602660248201527f4f776e61626c653a206e6577206f776e657220697320746865207a65726f206160448201526564647265737360d01b60648201526084016103c0565b610d5a81610e88565b50565b60606102d06004610f3e565b60006106c0836001600160a01b038416610f4b565b60006301ffc9a760e01b6001600160e01b0319831614806102be5750506001600160e01b03191660009081526020819052604090205460ff1690565b60006102be825490565b600081815260018301602052604081205415156106c0565b60006106c08383610f9a565b60006106c08383610fd2565b60006106c08383610f4b565b6000610e0c6004610dba565b1115610e4457610e3e610e366001610e246004610dba565b610e2e9190611367565b600490610ddc565b600490610de8565b50610e00565b6000610e506006610dba565b1115610a9c57610e82610e7a6001610e686006610dba565b610e729190611367565b600690610ddc565b600690610de8565b50610e44565b600180546001600160a01b038381166001600160a01b0319831681179093556040519116919082907f8be0079c531659141344cd1fd0a4f28419497f9722a3daafe3b4186f6b6457e090600090a35050565b610ee5600283610d69565b506001600160a01b0382166000818152600a6020908152604091829020849055815192835282018390527f9ecf847944cbf529e9369a6dd406da52e7bc4c37c3de326072fcc840dbd0213a910160405180910390a15050565b606060006106c0836110ef565b6000818152600183016020526040812054610f92575081546001818101845560008481526020808220909301849055845484825282860190935260409020919091556102be565b5060006102be565b6000826000018281548110610fbf57634e487b7160e01b600052603260045260246000fd5b9060005260206000200154905092915050565b600081815260018301602052604081205480156110e5576000610ff6600183611367565b855490915060009061100a90600190611367565b905081811461108b57600086600001828154811061103857634e487b7160e01b600052603260045260246000fd5b906000526020600020015490508087600001848154811061106957634e487b7160e01b600052603260045260246000fd5b6000918252602080832090910192909255918252600188019052604090208390555b85548690806110aa57634e487b7160e01b600052603160045260246000fd5b6001900381819060005260206000200160009055905585600101600086815260200190815260200160002060009055600193505050506102be565b60009150506102be565b60608160000180548060200260200160405190810160405280929190818152602001828054801561113f57602002820191906000526020600020905b81548152602001906001019080831161112b575b50505050509050919050565b604051806101400160405280600a906020820280368337509192915050565b60006020828403121561117b578081fd5b81356106c0816113d4565b600060208284031215611197578081fd5b81516106c0816113d4565b600080604083850312156111b4578081fd5b82356111bf816113d4565b946020939093013593505050565b6000602082840312156111de578081fd5b815180151581146106c0578182fd5b6000602082840312156111fe578081fd5b5035919050565b600060208284031215611216578081fd5b81356001600160e01b0319811681146106c0578182fd5b60006020828403121561123e578081fd5b5051919050565b60008060408385031215611257578182fd5b823591506020830135611269816113d4565b809150509250929050565b60008060408385031215611286578182fd5b50508035926020909101359150565b6020808252825182820181905260009190848201906040850190845b818110156112d65783516001600160a01b0316835292840192918401916001016112b1565b50909695505050505050565b6020808252825182820181905260009190848201906040850190845b818110156112d6578351835292840192918401916001016112fe565b6020808252818101527f4f776e61626c653a2063616c6c6572206973206e6f7420746865206f776e6572604082015260600190565b60008219821115611362576113626113be565b500190565b600082821015611379576113796113be565b500390565b600060ff821660ff811415611395576113956113be565b60010192915050565b6000826113b957634e487b7160e01b81526012600452602481fd5b500690565b634e487b7160e01b600052601160045260246000fd5b6001600160a01b0381168114610d5a57600080fdfea2646970667358221220db328b17dbecd127af38cbf66a0f4e11967067cb4b5e1a51f79b9a91cb9297fb64736f6c63430008020033a26469706673582212203305fb8b0a5e8eb8b78b0533d3031e038fd9b8a47f7b4c5bdf8937ded3f5ca1364736f6c63430008020033",
  "linkReferences": {},
  "deployedLinkReferences": {}
}