{
  "_format": "hh-sol-artifact-1",
  "contractName": "TRAFF",
  "sourceName": "contracts/TRAFF.sol",
  "abi": [
    {
      "anonymous": false,
      "inputs": [
        {
          "indexed": true,
          "internalType": "address",
          "name": "src",
          "type": "address"
        },
        {
          "indexed": true,
          "internalType": "address",
          "name": "guy",
          "type": "address"
        },
        {
          "indexed": false,
          "internalType": "uint256",
          "name": "wad",
          "type": "uint256"
        }
      ],
      "name": "Approval",
      "type": "event"
    },
    {
      "anonymous": false,
      "inputs": [
        {
          "indexed": true,
          "internalType": "address",
          "name": "src",
          "type": "address"
        },
        {
          "indexed": true,
          "internalType": "address",
          "name": "dst",
          "type": "address"
        },
        {
          "indexed": false,
          "internalType": "uint256",
          "name": "wad",
          "type": "uint256"
        }
      ],
      "name": "Transfer",
      "type": "event"
    },
    {
      "inputs": [
        {
          "internalType": "address",
          "name": "",
          "type": "address"
        },
        {
          "internalType": "address",
          "name": "",
          "type": "address"
        }
      ],
      "name": "allowance",
      "outputs": [
        {
          "internalType": "uint256",
          "name": "",
          "type": "uint256"
        }
      ],
      "stateMutability": "view",
      "type": "function"
    },
    {
      "inputs": [
        {
          "internalType": "address",
          "name": "guy",
          "type": "address"
        },
        {
          "internalType": "uint256",
          "name": "wad",
          "type": "uint256"
        }
      ],
      "name": "approve",
      "outputs": [
        {
          "internalType": "bool",
          "name": "",
          "type": "bool"
        }
      ],
      "stateMutability": "nonpayable",
      "type": "function"
    },
    {
      "inputs": [
        {
          "internalType": "address",
          "name": "",
          "type": "address"
        }
      ],
      "name": "balanceOf",
      "outputs": [
        {
          "internalType": "uint256",
          "name": "",
          "type": "uint256"
        }
      ],
      "stateMutability": "view",
      "type": "function"
    },
    {
      "inputs": [],
      "name": "decimals",
      "outputs": [
        {
          "internalType": "uint8",
          "name": "",
          "type": "uint8"
        }
      ],
      "stateMutability": "view",
      "type": "function"
    },
    {
      "inputs": [],
      "name": "faucet",
      "outputs": [
        {
          "internalType": "bool",
          "name": "",
          "type": "bool"
        }
      ],
      "stateMutability": "nonpayable",
      "type": "function"
    },
    {
      "inputs": [],
      "name": "name",
      "outputs": [
        {
          "internalType": "string",
          "name": "",
          "type": "string"
        }
      ],
      "stateMutability": "view",
      "type": "function"
    },
    {
      "inputs": [],
      "name": "symbol",
      "outputs": [
        {
          "internalType": "string",
          "name": "",
          "type": "string"
        }
      ],
      "stateMutability": "view",
      "type": "function"
    },
    {
      "inputs": [
        {
          "internalType": "address",
          "name": "dst",
          "type": "address"
        },
        {
          "internalType": "uint256",
          "name": "wad",
          "type": "uint256"
        }
      ],
      "name": "transfer",
      "outputs": [
        {
          "internalType": "bool",
          "name": "",
          "type": "bool"
        }
      ],
      "stateMutability": "nonpayable",
      "type": "function"
    },
    {
      "inputs": [
        {
          "internalType": "address",
          "name": "src",
          "type": "address"
        },
        {
          "internalType": "address",
          "name": "dst",
          "type": "address"
        },
        {
          "internalType": "uint256",
          "name": "wad",
          "type": "uint256"
        }
      ],
      "name": "transferFrom",
      "outputs": [
        {
          "internalType": "bool",
          "name": "",
          "type": "bool"
        }
      ],
      "stateMutability": "nonpayable",
      "type": "function"
    }
  ],
  "bytecode": "0x60c0604052600c60808190526b2a32b9ba3732ba102920a32360a11b60a090815261002d9160009190610079565b50604080518082019091526004808252632920a32360e11b602090920191825261005991600191610079565b506002805460ff1916600617905534801561007357600080fd5b5061014d565b82805461008590610112565b90600052602060002090601f0160209004810192826100a757600085556100ed565b82601f106100c057805160ff19168380011785556100ed565b828001600101855582156100ed579182015b828111156100ed5782518255916020019190600101906100d2565b506100f99291506100fd565b5090565b5b808211156100f957600081556001016100fe565b60028104600182168061012657607f821691505b6020821081141561014757634e487b7160e01b600052602260045260246000fd5b50919050565b6105dd8061015c6000396000f3fe608060405234801561001057600080fd5b50600436106100935760003560e01c806370a082311161006657806370a082311461010b57806395d89b4114610139578063a9059cbb14610141578063dd62ed3e14610154578063de5f72fd1461017f57610093565b806306fdde0314610098578063095ea7b3146100b657806323b872dd146100d9578063313ce567146100ec575b600080fd5b6100a061019c565b6040516100ad91906104d4565b60405180910390f35b6100c96100c43660046104ab565b61022a565b60405190151581526020016100ad565b6100c96100e7366004610470565b610296565b6002546100f99060ff1681565b60405160ff90911681526020016100ad565b61012b610119366004610424565b60036020526000908152604090205481565b6040519081526020016100ad565b6100a06103e7565b6100c961014f3660046104ab565b6103f4565b61012b61016236600461043e565b600460209081526000928352604080842090915290825290205481565b336000908152600360205260409020633b9aca00905560016100c9565b600080546101a990610556565b80601f01602080910402602001604051908101604052809291908181526020018280546101d590610556565b80156102225780601f106101f757610100808354040283529160200191610222565b820191906000526020600020905b81548152906001019060200180831161020557829003601f168201915b505050505081565b3360008181526004602090815260408083206001600160a01b038716808552925280832085905551919290917f8c5be1e5ebec7d5bd14f71427d1e84f3dd0314c0f7b2291e5b200ac8c7c3b925906102859086815260200190565b60405180910390a350600192915050565b6001600160a01b0383166000908152600360205260408120548211156102bb57600080fd5b6001600160a01b0384163314610334576001600160a01b03841660009081526004602090815260408083203384529091529020548211156102fb57600080fd5b6001600160a01b03841660009081526004602090815260408083203384529091528120805484929061032e90849061053f565b90915550505b6001600160a01b0384166000908152600360205260408120805484929061035c90849061053f565b90915550506001600160a01b03831660009081526003602052604081208054849290610389908490610527565b92505081905550826001600160a01b0316846001600160a01b03167fddf252ad1be2c89b69c2b068fc378daa952ba7f163c4a11628f55a4df523b3ef846040516103d591815260200190565b60405180910390a35060019392505050565b600180546101a990610556565b6000610401338484610296565b9392505050565b80356001600160a01b038116811461041f57600080fd5b919050565b600060208284031215610435578081fd5b61040182610408565b60008060408385031215610450578081fd5b61045983610408565b915061046760208401610408565b90509250929050565b600080600060608486031215610484578081fd5b61048d84610408565b925061049b60208501610408565b9150604084013590509250925092565b600080604083850312156104bd578182fd5b6104c683610408565b946020939093013593505050565b6000602080835283518082850152825b81811015610500578581018301518582016040015282016104e4565b818111156105115783604083870101525b50601f01601f1916929092016040019392505050565b6000821982111561053a5761053a610591565b500190565b60008282101561055157610551610591565b500390565b60028104600182168061056a57607f821691505b6020821081141561058b57634e487b7160e01b600052602260045260246000fd5b50919050565b634e487b7160e01b600052601160045260246000fdfea26469706673582212209827e398df4a61fc464a6a0ddc060876cd471ca037e01350bfc7d0ac200b7dd164736f6c63430008020033",
  "linkReferences": {},
  "deployedLinkReferences": {}
}